:100000000C9463000C948B000C948B000C948B006C
:100010000C948B000C948B000C948B000C948B0034
:100020000C948B000C948B000C948B000C948B0024
:100030000C948B000C948B000C948B000C948B0014
:100040000C947B040C948B000C946E030C9448036A
:100050000C948B000C948B000C948B000C948B00F4
:100060000C94F1050C948B000000000800020100C4
:100070000003040700000000000000000000000072
:1000800023002600290000000000250028002B0086
:10009000040404040404040402020202020203032E
:1000A0000303030301020408102040800102040836
:1000B0001020010204081020000000002400270086
:1000C0002A00681A251911241FBECFEFD8E0DEBF21
:1000D000CDBF12E0A0E0B1E0E6E4F4E402C0059098
:1000E0000D92AE39B107D9F724E0AEE9B2E001C014
:1000F0001D92AC37B207E1F710E0C2E6D0E004C0D1
:100100002197FE010E94D91AC136D107C9F70E9472
:10011000410C0C9416220C940000FC01918D828DF0
:10012000981761F0828DDF01A80FB11D5D968C914B
:10013000928D9F5F9F73928F90E008958FEF9FEF56
:100140000895FC01918D828D981731F0828DE80F12
:10015000F11D858D90E008958FEF9FEF0895FC01CC
:10016000918D228D892F90E0805C9F4F821B910999
:100170008F739927089589E693E00E94AF0021E0EC
:10018000892B09F420E0822F0895FC01848DDF0182
:10019000A80FB11DA35ABF4F2C91848D90E00196FA
:1001A0008F739927848FA689B7892C93A089B189E9
:1001B0008C9180648C93938D848D981306C00288F3
:1001C000F389E02D80818F7D80830895EF92FF92E7
:1001D0000F931F93CF93DF93EC0181E0888F9B8D6A
:1001E0008C8D981305C0E889F989808185FD24C02C
:1001F000F62E0B8D10E00F5F1F4F0F731127E02EAF
:100200008C8DE8120CC00FB607FCFACFE889F9898B
:10021000808185FFF5CFCE010E94C500F1CF8B8D87
:10022000FE01E80FF11DE35AFF4FF0820B8FEA89C0
:10023000FB898081806207C0EE89FF896083E8893D
:10024000F98980818064808381E090E0DF91CF91A3
:100250001F910F91FF90EF900895CF93DF93EC01E2
:10026000888D8823C9F0EA89FB89808185FD05C0D6
:10027000A889B9898C9186FD0FC00FB607FCF5CF10
:10028000808185FFF2CFA889B9898C9185FFEDCF58
:10029000CE010E94C500E7CFDF91CF91089580E0A5
:1002A00090E0892B29F00E94BB0081110C94000082
:1002B00008953FB7F8948091650390916603A091EB
:1002C0006703B091680326B5A89B05C02F3F19F0BE
:1002D0000196A11DB11D3FBFBA2FA92F982F8827C6
:1002E000820F911DA11DB11DBC01CD0142E0660F21
:1002F000771F881F991F4A95D1F7089521E001C003
:10030000220F6A95EAF7DC011C962C931C971A962B
:100310005C934E931997ED91FC910084F185E02D4B
:1003200060E00994DC01ED91FC910284F385E02DFD
:1003300041E0099581E090E008950895089585EDE4
:100340008093BC008091BC0084FDFCCF10923D03E3
:1003500008954091CE02262F30E0240F311D213226
:100360003105DCF420913D032430C9F4FC0180E028
:1003700090E0861758F43091CE022191DC01A4550B
:10038000BD4FA30FB11D2C930196F3CF8091CE02E8
:10039000680F6093CE0280E0089581E0089582E0C6
:1003A00008950895E0913F0380913E03E81730F4EB
:1003B000F0E0E05CFC4F808190E008958FEF9FEFCC
:1003C000089590913F0380913E03981750F4E92FD0
:1003D000F0E0E05CFC4F208130E09F5F90933F03B2
:1003E00002C02FEF3FEFC901089580913E0390E0D6
:1003F00020913F03821B91090895CF92DF92EF92E3
:10040000FF920F931F93CF93DF937C01262F972F9B
:100410008A018091F302882391F0C62FD72F6E01B5
:10042000C40ED51ECC15DD0571F06991D701ED9193
:10043000FC910190F081E02DC7010995F3CF642F65
:10044000822F0E94A901C801DF91CF911F910F91C6
:10045000FF90EF90DF90CF900895CF93DF931F929E
:10046000CDB7DEB769832091F3022223D1F020912A
:100470001503203240F021E030E0FC013383228379
:1004800080E090E015C080911603E82FF0E0EC507A
:10049000FD4F998190838F5F80931603809315039E
:1004A00005C061E0CE0101960E94A90181E090E0C3
:1004B0000F90DF91CF910895CF93FC0123812223E8
:1004C00009F46EC09181909569236083C28181E0B7
:1004D0008093F302C0931403109216031092150335
:1004E0008EE494E00E942D0280911503813208F081
:1004F0004AC020913D032111FCCF92E090933D032F
:1005000091E090933C039FEF90933B0310923A034A
:1005100080933903A4EFB2E047E153E0FA019E2F44
:10052000941B981718F49D919193F9CF109238036A
:1005300080913803CC0FC82BC093380380913703C8
:10054000813061F410923703809138038093BB00AF
:100550008091BC0083FDF8CF85EC01C085EE8093CF
:10056000BC0080913D038230E1F380913B038F3FDB
:1005700079F080913B03803241F080913B038033DE
:1005800031F024E005C021E003C022E001C023E0F7
:1005900010921603109215031092F30230E002C07D
:1005A00020E030E081E090E0232B11F080E090E04B
:1005B000CF910895EF92FF920F931F93CF938C01E9
:1005C000FC01759684E0C0E060FF02C09081C92BF9
:1005D0006695815031968111F7CF413011F4F801C1
:1005E0004489F8018585C82BC42B7801FEE0EF0E05
:1005F000F11CF80162896C2BC7010E945C02F801B2
:10060000628960956C23C701CF911F910F91FF9074
:10061000EF900C945C020F931F93CF93DF93062F00
:100620000F70423019F440E0602F10C0142F262FB5
:10063000EC0130E0B90184E0759567958A95E1F7A2
:10064000CE010E94DA02412F602FCE01DF91CF91BF
:100650001F910F910C94DA02FC0184858823A9F084
:10066000218532852115310519F4611106C007C0B5
:100670002130310521F4611102C0858701C0158642
:100680006585CF010E960C945C0208950E947E1D34
:100690001F920F920FB60F9211242F933F934F93F7
:1006A0005F936F937F938F939F93AF93BF93EF93DA
:1006B000FF9389E693E00E94C500FF91EF91BF91FF
:1006C000AF919F918F917F916F915F914F913F91EA
:1006D0002F910F900FBE0F901F9018951F920F92A1
:1006E0000FB60F9211242F938F939F93EF93FF9345
:1006F000E0917903F0917A038081E0917F03F0919A
:10070000800382FD12C09081809182038F5F8F737E
:1007100020918303821751F0E0918203F0E0E759C2
:10072000FC4F958F8093820301C08081FF91EF91F0
:100730009F918F912F910F900FBE0F901F90189542
:10074000833081F028F4813099F08230A1F008954F
:100750008730A9F08830B9F08430D1F480918000DE
:100760008F7D03C0809180008F77809380000895F3
:1007700084B58F7702C084B58F7D84BD0895809144
:10078000B0008F7703C08091B0008F7D8093B00060
:1007900008951F93CF93DF93282F30E0F901E85994
:1007A000FF4F8491F901EC55FF4FD491F901E057C7
:1007B000FF4FC491CC23C9F0162F81110E94A003D2
:1007C000EC2FF0E0EE0FFF1FEA57FF4FA591B49119
:1007D0008FB7F894111105C09C91ED2FE095E92396
:1007E00002C0EC91ED2BEC938FBFDF91CF911F9165
:1007F0000895CF93DF9390E0FC01EC55FF4F2491D7
:10080000FC01E057FF4F8491882361F190E0880F4D
:10081000991FFC01E854FF4FC591D491FC01EA57A0
:10082000FF4FA591B491611109C09FB7F8948881D9
:10083000209582238883EC912E230BC0623061F4D3
:100840009FB7F8943881822F809583238883EC9119
:100850002E2B2C939FBF06C08FB7F894E8812E2BC8
:1008600028838FBFDF91CF9108958F929F92AF928F
:10087000BF92CF92DF92EF92FF926B017C010E94B8
:1008800059014B015C01C114D104E104F104F1F000
:100890000E945901DC01CB0188199909AA09BB09F9
:1008A000883E9340A105B10570F321E0C21AD1083A
:1008B000E108F10888EE880E83E0981EA11CB11CA7
:1008C000C114D104E104F10419F7DDCFFF90EF90DA
:1008D000DF90CF90BF90AF909F908F9008952FB7EB
:1008E000F894609161037091620380916303909129
:1008F00064032FBF08951F920F920FB60F92112419
:100900002F933F938F939F93AF93BF9380916103F6
:1009100090916203A0916303B091640330916003EE
:1009200023E0230F2D3720F40196A11DB11D05C032
:1009300026E8230F0296A11DB11D2093600380932A
:10094000610390936203A0936303B0936403809167
:10095000650390916603A0916703B09168030196C7
:10096000A11DB11D8093650390936603A093670357
:10097000B0936803BF91AF919F918F913F912F9159
:100980000F900FBE0F901F901895DC01ED91FC9118
:100990000284F385E02D40E0099461E00E94C504E3
:1009A0008BE39FE10197F1F708950F931F93CF9386
:1009B000DF93EC01423018F08C8188608C834F8388
:1009C0006887222329F0413019F48C8184608C835C
:1009D00064E670E080E090E00E9435046C8164FD84
:1009E00031C0E881F9810284F385E02D42E063E0C3
:1009F000CE0109950BE416E4C8010197F1F7E881EF
:100A0000F9810284F385E02D42E063E0CE0109958F
:100A1000C8010197F1F7E881F9810284F385E02D9F
:100A200042E063E0CE01099583E592E00197F1F79A
:100A3000E881F9810284F385E02D42E062E0CE0195
:100A4000099516C06062CE010E94C5048BE496E44D
:100A50000197F1F76C816062CE010E94C50483E5C5
:100A600092E00197F1F76C816062CE010E94C504AB
:100A70006C816062CE010E94C50484E08D836CE0CD
:100A8000CE010E94C504CE010E94CD0482E08E8377
:100A900066E0CE010E94C504E881F9810084F185F9
:100AA000E02D6FEFCE01DF91CF911F910F9109944F
:100AB000FF920F931F93CF93DF93EC01162F042F18
:100AC000F22E8B85888B10923F0310923E0310927A
:100AD00016031092150310923D0381E080933C03AE
:100AE0001092370361E082E10E94C90361E083E173
:100AF0000E94C9038091B9008E7F8093B9008091D4
:100B0000B9008D7F8093B90088E48093B80085E4B4
:100B10008093BC00888990913D039111FCCF91E0B6
:100B200090933D0390933C032FEF20933B0310924F
:100B30003A03109239039093380390913803880F49
:100B4000892B8093380380913703813061F41092B0
:100B50003703809138038093BB008091BC0083FDF4
:100B6000F8CF85EC01C085EE8093BC0080913D03F9
:100B70008130E1F380913A03811103C080913A03FF
:100B800001C081E0A7E1B3E020E433E0F9019E2F4A
:100B9000921B981718F49D919193F9CF10923F03EF
:100BA00080933E0391E0811101C090E0998B8EE427
:100BB00094E00E94E1018E878989882339F01F869D
:100BC0001C8260E0CE010E960E945C022F2D402F09
:100BD000612FCE01DF91CF911F910F91FF900C9467
:100BE000D5041F920F920FB60F9211242F933F93AB
:100BF0004F935F936F937F938F939F93AF93BF9325
:100C0000EF93FF938091B900887F803609F49CC0F0
:100C100068F5883209F45BC090F4803109F454C05F
:100C200038F4882309F4F6C0883009F44DC0F6C0C2
:100C3000883109F44CC0803209F45DC0EFC08034C3
:100C400009F468C048F4803309F455C0883309F0CA
:100C5000E5C080933B03D8C0803509F44FC0883588
:100C600009F45DC0883409F0D9C0D6C0883909F4C8
:100C7000C7C0A8F4883709F467C038F4883609F487
:100C800063C0803709F460C0C9C0883809F4B8C0AF
:100C9000803909F45FC0803809F0C0C05BC0803B78
:100CA00009F486C038F4803A09F466C0883A09F439
:100CB0007FC0B4C0803C09F4A7C0883C09F4A4C03C
:100CC000883B09F48AC0AAC08091380310C0909173
:100CD0003A0380913903981770F5E0913A0381E067
:100CE0008E0F80933A03F0E0E95EFC4F80818093A1
:100CF000BB0085EC86C080933B038EC0E0913A0335
:100D000081E08E0F80933A038091BB00F0E0E95EB2
:100D1000FC4F808390913A03809139036EC0E0913B
:100D20003A0381E08E0F80933A038091BB00F0E09C
:100D3000E95EFC4F808380913C0381116DC081E0AE
:100D40008093370384EA61C083E080933D0310926F
:100D5000F202CFCF8091F202803208F051C0E091D0
:100D6000F20281E08E0F8093F2028091BB00F0E0EE
:100D7000EE52FD4F8083BDCF85EC8093BC00109276
:100D80003D038091F202803230F4E091F202F0E013
:100D9000EE52FD4F10826091F20270E0E091D002BD
:100DA000F091D10282ED92E009951092F20236C0E4
:100DB00084E080933D031092CF021092CE02E09126
:100DC000CC02F091CD0209958091CE02811105C02F
:100DD00081E08093CE021092AC02E091CF0281E0DC
:100DE0008E0F8093CF02F0E0E455FD4F8081809319
:100DF000BB009091CF028091CE02981708F479CF72
:100E000085E88093BC000AC085EC8093BC001092FA
:100E10003D0304C010923B030E949F01FF91EF919C
:100E2000BF91AF919F918F917F916F915F914F9102
:100E30003F912F910F900FBE0F901F90189580E05B
:100E400090E070E09B01082E02C0359527950A942A
:100E5000E2F720FD05C001968830910599F780E002
:100E6000089560E00C94230AEF92FF921F93CF93B2
:100E7000DF93FC011FB7F894158A80E0062E000C62
:100E8000770B21E030E0CBE0D0E04589A68DB78D2F
:100E9000958D483008F054C07B0102C0F594E7946A
:100EA0004A95E2F7E0FE09C0FC90A90101C0440F99
:100EB0009A95EAF74F294C930AC04C91790101C0E9
:100EC000EE0C9A95EAF79E2D909594239C93E38CD3
:100ED000F48CD7014C91D901028C02C0AA0FBB1F20
:100EE0000A94E2F79A2F90959423D7019C931FBF01
:100EF000DE011197F1F7F894A4A1B5A14C9150E04F
:100F000003A002C0559547950A94E2F740FF08C038
:100F1000A901058802C0440F551F0A94E2F7842BEB
:100F2000A38DB48D9C91A901028C02C0440F551F62
:100F30000A94E2F7492B4C9395899F5F958BA5CF37
:100F40004C9121E030E001C0220F9A95EAF7242B62
:100F50002C931FBFE7E0F0E03197F1F7DF91CF91DD
:100F60001F91FF90EF900895BF92CF92DF92EF9282
:100F7000FF920F931F93CF93DF93EC016B01BFB6EA
:100F8000F894E9A1FAA1208181E090E008A002C0D4
:100F9000880F991F0A94E2F7809582238083BFBE51
:100FA0007B01042F10E0C7018C199D098017910760
:100FB0003CF4F70161917F01CE010E943407F3CF29
:100FC000F894E9A1FAA1208181E090E008A002C094
:100FD000880F991F0A94E2F7822B8083BFBE6AA50F
:100FE00070E080E090E0DF91CF911F910F91FF9032
:100FF000EF90DF90CF90BF900C943504DC015896B1
:10100000ED91FC915997AF01409550954623572398
:1010100091E0452B09F490E056962D913C9157971D
:101020002E273F276223732381E0672B09F480E09A
:1010300089230895CF93DF93EC015F934F938AE860
:1010400092E09F938F93660F771F660F771F8D81B6
:101050009E81680F791F7F936F930E94B41D81E07A
:101060008A830F900F900F900F900F900F90DF9149
:10107000CF910895CF93DF93EC015F934F938FE867
:1010800092E09F938F93660F771F660F771F8D8176
:101090009E81680F791F7F936F930E94B41D81E03A
:1010A0008A830F900F900F900F900F900F90DF9109
:1010B000CF9108956115710579F0FB010190002031
:1010C000E9F73197AF01461B570BDC01ED91FC911D
:1010D0000280F381E02D099480E090E00895EF9282
:1010E000FF920F931F93CF93DF93EC017B018A0153
:1010F000888199810E94CD0460E0888199810E9455
:101100000D09B701888199810E945A0861E08881A0
:1011100099810E940D09B80188819981DF91CF9151
:101120001F910F91FF90EF900C945A08CF92DF928D
:10113000EF92FF926B017C01E0917903F0917A03C9
:1011400082E08083C11481EED806E104F104B1F09D
:1011500060E079E08DE390E0A70196010E948F2185
:10116000DA01C9010197A109B109B695A79597952B
:1011700087959C01211580E13807B8F0E09179034B
:10118000F0917A03108260E874E88EE190E0A701A4
:1011900096010E948F21DA01C9010197A109B109C5
:1011A000B695A795979587959C01E0917503F09169
:1011B00076033083E0917703F091780320831092D7
:1011C0008103E0917D03F0917E0386E08083E091CE
:1011D0007B03F0917C03808180618083E0917B03BD
:1011E000F0917C03808188608083E0917B03F091A3
:1011F0007C03808180688083E0917B03F0917C0395
:1012000080818F7D8083FF90EF90DF90CF90089555
:10121000682F89E693E00C94E600CF93DF93CDB777
:10122000DEB728970FB6F894DEBF0FBECDBF1D8284
:1012300020E42E8334E13F8334E5388719822A8302
:1012400020E12B8320E52C83FC012781621710F01D
:101250006FEF620FFC01308570E0FE01E60FF71FB3
:10126000303121F4243011F4618101C0658160685E
:1012700028960FB6F894DEBF0FBECDBFDF91CF9199
:101280000C94C504809161049091620481309105B1
:1012900061F01CF4892B69F00BC08230910561F07C
:1012A000039731F420E731E009C026E932E006C0B7
:1012B000089523E731E002C02AE932E0C901089528
:1012C000682F89E693E00C94E600CF93DF93EC015E
:1012D00080915C0490915D0480589F4F0E940809A2
:1012E00080915E0490915F048C0F9D1F0E940809FD
:1012F00085E490E00E940809809160048823C1F091
:1013000080915C0490915D0480589F4F0E94080971
:1013100020915E0430915F04CE01820F931F0C97E1
:101320000E94080985E490E0DF91CF910C940809B0
:10133000DF91CF9108950F931F93CF93DF938C018B
:10134000CAE5D4E08A819B8180579F4F0E9408099B
:101350008C819D81800F911F0E94080985E490E097
:10136000DF91CF911F910F910C9408090F931F9358
:10137000CF93DF93C0E0D0E000E010E080917104F3
:101380009091720408171907C4F4E0916F04F0916A
:101390007004EC0FFD1F8281882359F083819481B2
:1013A0000E946509E0916F04F0917004EC0FFD1F3D
:1013B00012820F5F1F4F2596E1CFDF91CF911F91D2
:1013C0000F9108950F931F93E0915A04F0915B04DD
:1013D000808D918D8095909589709927099711F549
:1013E0000E94B6090E946F04009173041091740466
:1013F0002091750430917604DC01CB01801B910BA8
:10140000A20BB30B853C29E09207A105B10580F042
:101410000E946F0460937304709374048093750446
:101420009093760461E089E00E94C90380E008C0DF
:10143000813D9740A105B105A8F381E08093770431
:101440001F910F9108954F925F926F927F928F92AA
:101450009F92AF92BF92DF92EF92FF920F931F93F2
:10146000CF93DF93CDB7DEB729970FB6F894DEBFE1
:101470000FBECDBF8C01F62E0E946F04D801969648
:101480008D909D90AD90BC909997681979098A09C3
:101490009B090E945A204B015C01DFB620E030E836
:1014A0004BEB54E40E94821B18163CF545E060E2C9
:1014B00071E0C8010E94B40749E067E171E0C8012A
:1014C0000E94B407F80184A5882331F045E062E169
:1014D00071E0C8010E94B407D8019D968C918823C1
:1014E00031F049E069E071E0C8010E94B40749E0C9
:1014F00060E071E0C8010E94B407F80162A570E0E5
:1015000080E090E00E945C202B013C019B01AC013B
:10151000C501B4010E94552087FF0AC0A5019401AE
:10152000C301B2010E94DF1A0E94531B0E943504BE
:10153000D80158968D919C91599757969C938E936C
:101540005697FF2079F02F2D30E0AFEBB0E00E94EE
:1015500007222FEF30E040E050E00E94B12180E40C
:10156000F82EF20EF894D8015E96ED91FC915F97FB
:10157000408181E090E09C015D960C905D9702C0F7
:10158000220F331F0A94E2F7242B20835B96ED9100
:10159000FC915C9740819C015A960C905A9702C02E
:1015A000220F331F0A94E2F7242B20839196ED91AA
:1015B000FC919297208190960C9002C0880F991F01
:1015C0000A94E2F7809582238083DFBE87E090E073
:1015D0000197F1F7FE01319689E0DF011D928A95AE
:1015E000E9F781E0898382E48A83FD827F015801E3
:1015F0004E01BAE08B0E911CF70161917F01C80189
:101600000E943407D5018D935D01E814F904A1F718
:10161000F80181818937C9F1F894D8019196ED914B
:10162000FC919297208181E090E090960C909097A9
:1016300002C0880F991F0A94E2F7822B8083DFBED5
:1016400013968D919C91149759969C938E935897CD
:101650000E946F04F80166A377A380A791A729963B
:101660000FB6F894DEBF0FBECDBFDF91CF911F91B3
:101670000F91FF90EF90DF90BF90AF909F908F9071
:101680007F906F905F904F9008957801F9E0EF0E92
:10169000F11C580185E1A80EB11C60E0C8010E9450
:1016A0003407D7018D937D01AA15BB05B1F7B4CFDF
:1016B000EF92FF920F931F93CF93DF93EC017B0187
:1016C0008A01BA010E94A50B811104C0CE010E94BB
:1016D000CC0B07C01D830C83B701888199810E94C0
:1016E000931DCE01DF91CF911F910F91FF90EF904D
:1016F00008950895CF92DF92EF92FF920F931F9378
:10170000CF93DF936C017A018B01C0E0D0E0CE155E
:10171000DF0589F0D8016D918D01D601ED91FC9125
:101720000190F081E02DC6010995892B11F47E010D
:1017300002C02196ECCFC701DF91CF911F910F918D
:10174000FF90EF90DF90CF9008950F931F93CF936A
:10175000DF93EC0188819981009729F02A813B81F0
:101760002617370788F48B016F5F7F4F0E94B41CE8
:10177000009761F0998388831B830A832C813D81C4
:10178000232B11F4FC01108281E001C080E0DF9185
:10179000CF911F910F910895CF93DF93EC01888132
:1017A0009981009711F00E941C1C198218821D82D9
:1017B0001C821B821A82DF91CF910895FC018081E7
:1017C00091810C941C1CFC011182108213821282E4
:1017D000158214826115710551F0FB010190002002
:1017E000E9F73197AF01461B570B0C94580B08953E
:1017F0004F925F926F927F92EF92FF920F931F939F
:10180000CF93DF93CDB7DEB7A1970FB6F894DEBFC5
:101810000FBECDBF7C01FA01CB0119A2223008F422
:101820002AE08E010F5D1F4F422E512C612C712C2E
:10183000BF01A30192010E948F21F901CA01015049
:1018400011096A3014F4605D01C0695CD8016C93C1
:10185000232B242B252B61F7B801C7010E945A08BE
:10186000A1960FB6F894DEBF0FBECDBFDF91CF912A
:101870001F910F91FF90EF907F906F905F904F902E
:101880000895CF93DF93CDB7DEB7AD970FB6F89439
:10189000DEBF0FBECDBF789484B5826084BD84B5B1
:1018A000816084BD85B5826085BD85B5816085BD5B
:1018B00080916E00816080936E0010928100809113
:1018C000810082608093810080918100816080939B
:1018D0008100809180008160809380008091B100C0
:1018E00084608093B1008091B00081608093B000EB
:1018F00080917A00846080937A0080917A0082607F
:1019000080937A0080917A00816080937A00809140
:101910007A00806880937A001092C10010924A0485
:1019200010924B0410924C0410924D041092080433
:101930001092090410920A0410920B040E946F0482
:101940004B015C012B013C0128EB420E2BE0521EA7
:10195000611C711C0E946F04681579058A059B053E
:1019600028F04616570668067906A0F789E693E040
:10197000909349048093480460E072EC81E090E029
:101980000E9496080E946F046093080470930904F3
:1019900080930A0490930B0467E771E080914804F8
:1019A000909149040E945A080E946F044B015C0107
:1019B0002B013C014AE0440E511C611C711C0E9429
:1019C0006F04681579058A059B0528F046165706A9
:1019D00068067906A0F7EE24E394E0921C0461E027
:1019E00089E00E94F90361E089E00E94C9038091C7
:1019F000A1029091A202892B09F06DC087E090E0CE
:101A00000E94871B6C01DC0112961C9289E190E018
:101A10000E94871B8C01FC011382128283E391E0F8
:101A200091838083108A8FEF87871686118A87E2D9
:101A30008387148615861286118684E0828B82E065
:101A4000838BE48A80E1858B80E2868B80E4878BC0
:101A500080E8808F40E050E063E0C8010E947E0192
:101A6000D6010D931C93D801ED91FC910480F58172
:101A7000E02D20E042E060E1C801099582E190E0BC
:101A80000E94871BF6019483838382E190E00E9489
:101A9000871BD60116969C938E93159780E090E055
:101AA00020E231E0D6011396ED91FC911497E80FF6
:101AB000F91F20831596ED91FC911697E80FF91FF9
:101AC000208312963C9301968231910559F7D0926A
:101AD000A202C092A102E091A102F091A202808133
:101AE00091810E94CD04E091A102F091A20260E0F8
:101AF000808191810E940D09E091A102F091A202E2
:101B000080819181DC01ED91FC910084F185E02DD3
:101B10006FEF099549E851E06AE971E08091A1020F
:101B20009091A2020E946F080EE110E031E7C32EEF
:101B300030E0D32E4DEAA42E40E0B42E59E9852E94
:101B400050E0952EF6018491F5017490F401E49033
:101B5000EE20A9F081110E94A0038E2D90E0880F45
:101B6000991F84589F4FFC01A591B4918C917822C4
:101B700091E080E009F490E0692F782F02C060E0E6
:101B800070E0F1E06F2789E00E94C90368EC70E023
:101B900080E090E00E9435040150110999F6AA24D2
:101BA000A394B12C17E0612E712CAE014F5F5F4FF3
:101BB0006A0110925D0410925C0410925F0410920E
:101BC0005E0410926004109262041092610480918D
:101BD0005A0490915B04009711F00E941C1C8EE245
:101BE00090E00E94871B2EE2DC011D922A95E9F706
:101BF00090935B0480935A046CE271E080E090E083
:101C00000E94350400915A0410915B04EFB6E1EB99
:101C1000F0E06491C8010E941F07D8015A968C9386
:101C20005A97EDE9F0E08491E82FF0E0EE0FFF1F06
:101C3000EA57FF4F859194915C969C938E935B97A6
:101C4000EFEAF0E06491C8010E941F07D8015D9699
:101C50008C935D97EBE9F0E08491E82FF0E0EE0FD4
:101C6000FF1FEA57FF4F859194915F969C938E9347
:101C70005E97EEEAF0E06491C8010E941F07F80148
:101C800080A3EAE9F0E0E491F0E0EE0FFF1FEA57ED
:101C9000FF4F85919491D80192969C938E93919742
:101CA000E0EBF0E06491C8010E941F07F80183A3F4
:101CB000ECE9F0E0E491F0E0EE0FFF1FE458FF4F95
:101CC00085919491D80195969C938E93949761E019
:101CD0008DE00E94F90361E08AE00E94F90361E06F
:101CE0008BE00E94F90360E08CE00E94F90361E060
:101CF0008CE00E94C903F894D8015E96ED91FC91A6
:101D00005F972081C5015D960C905D9702C0880F9A
:101D1000991F0A94E2F7822B80835B96ED91FC91E8
:101D20005C972081C5015A960C9002C0880F991FBC
:101D30000A94E2F7822B8083EFBEC8010E9431072C
:101D4000C8010E943107F8018181813429F183376C
:101D500019F1893709F14BEA51E062EB71E08091AA
:101D6000A1029091A2020E946F0868EB7BE080E0E4
:101D700090E00E94350441EC51E062EB71E080910B
:101D8000A1029091A2020E946F0868EE73E080E0C9
:101D900090E00E9435040DCF81E0D8019A968C9393
:101DA0004BE0842E912C45E060E271E0C8010E9476
:101DB000B407C3010197F1F7F894D8015E96ED914D
:101DC000FC915F972081C5015D960C905D9702C0E4
:101DD000880F991F0A94E2F7822B80835B96ED911E
:101DE000FC915C972081C5015A960C905A9702C0CD
:101DF000880F991F0A94E2F7822B80839196ED91C8
:101E0000FC9192972081C50190960C9002C0880F9A
:101E1000991F0A94E2F7809582238083EFBEC30165
:101E20000197F1F73FE3232E31E0332E2601F10134
:101E300061911F01C8010E943407D2018D932D01C9
:101E4000B8E42B16B1E03B0691F7F894D8019196CF
:101E5000ED91FC9192972081C50190960C909097FE
:101E600002C0880F991F0A94E2F7822B8083EFBE8D
:101E70008C819B968C9349E067E171E0C8010E94D8
:101E8000B40749E060E071E0C8010E94B407C801EE
:101E90000E943107F8018181833779F0813469F03C
:101EA000F1E08F1A910809F456CFD8019A968C91D7
:101EB0009A978F5F9A968C9376CF00915A041091DF
:101EC0005B04F80183A5833009F440C0813009F038
:101ED000B8C085E090E0909372048093710489E12A
:101EE00090E00E94871BFC019093700480936F0424
:101EF00080E090E891838083128285E390E0948370
:101F0000838380E090E496838583178284E390E066
:101F10009187808780E090E193878287148683E3AE
:101F200090E09687858780E090E2908B8787118A82
:101F300082E390E0938B828B80E092E0958B848BA0
:101F4000168A81E390E0908F878B7BC08CE090E0D5
:101F500090937204809371048CE390E00E94871B3D
:101F6000FC019093700480936F0480E490E091836F
:101F70008083128280E390E09483838380E890E002
:101F800096838583178281E390E09187808780E143
:101F900090E093878287148682E390E09687858716
:101FA00080E290E0908B8787118A83E390E0938BA7
:101FB000828B80E094E0958B848B168A84E390E09A
:101FC000908F878B80E091E0928F818F138E85E3D5
:101FD00090E0958F848F80E090E4978F868F10A299
:101FE00086E390E092A381A380E090E894A383A38A
:101FF00015A287E390E097A386A380E090E191A7E4
:1020000080A712A688E390E094A783A780E090E2DF
:1020100096A785A717A689E390E091AB80AB80E0F7
:1020200098E093AB82AB14AA8AE390E096AB85ABC1
:1020300080E092E090AF87AB11AE8BE390E093AF7E
:1020400082AFD8019B968C91833031F0813039F08A
:102050008F3F39F4F12C05C0FF24F39402C022E035
:10206000F22EF092A0028091A1029091A202B1E022
:10207000FB1641F0E2E0FE1651F042ED51E06FED4B
:1020800071E009C048E851E067EE71E004C048E83B
:1020900051E067EF71E00E946F0882E090E00E94DB
:1020A000871BDC011D921C9290939F0280939E02DD
:1020B00080915A0490915B040E94310780E090E087
:1020C0000E947921803309F07BC189E693E00E9468
:1020D0002D01E0917B03F0917C0380818F7E8083D2
:1020E000E0917B03F0917C038081877F8083E09186
:1020F0007B03F0917C0380818F778083E0917B0369
:10210000F0917C0380818F7D808380918303809315
:10211000820360E072EC81E090E00E94960889E61C
:1021200093E00E942D0148E851E068E072E0809160
:10213000A1029091A2020E946F0889E693E00E949A
:10214000AF00181619063CF065E070E080E090E002
:102150000E943504F2CFE091A102F091A2028081A9
:1021600091810E94CD0489E693E00E94AF00181689
:1021700019060CF014C160E089E00E94C9036BE10C
:1021800072E0CE0187960E94E30B68E871E0CE0111
:1021900081960E94E30B8E010F5E1F4F89E693E04C
:1021A0000E94AF0018161906CCF7C8010E946F19DB
:1021B00061E272E0C6010E94E30BB601C8010E9411
:1021C000A9197C01C6010E94DE0BF7FC14C02D8901
:1021D0003E89A7014D5F5F4FB801C6010E94FC19FF
:1021E000B601CE0181960E94C319C6010E94DE0B82
:1021F000FF24F39401C0F12CC8010E94DE0BFF20E4
:1022000069F289E693E00E94AF0018161906D4F52A
:10221000C6010E946F191A8A198A1C8A1B8A1E8A93
:102220001D8ABE016F5D7F4FC8010E94511A8D81CA
:102230009E81A980BA80ED88FE88E80EF91EA1145F
:10224000B10409F4C5C4892B91F0B701C8010E94FB
:10225000A50B882309F4BCC429893A898D899E89F4
:10226000B501820F931F0E94931DFE8AED8AB8016B
:10227000CE0181960E94511AC8010E94DE0BC60150
:102280000E94DE0B65E272E0C6010E94E30BB6011C
:10229000CE0181960E94A9197C01C6010E94DE0B25
:1022A000F7FCAFCF970140E050E0BE016F5D7F4F7C
:1022B000C6010E94FC19B601CE0181960E94C31985
:1022C000C6010E94DE0B8DA19EA1892B19F4E12C81
:1022D000F12C24C01A8219821C821B821E821D824C
:1022E000BE016F5D7F4FC6010E94511AB6018091F9
:1022F0009E0290919F020E94B1187C01C6010E942B
:10230000DE0B8DA19EA1E816F90641F444E050E0F1
:1023100069E272E0CE0187960E94580B61E089E085
:102320000E94C90340E150E060E270E0C8010E94F1
:102330008C1D40E150E060E270E0C6010E948C1DFF
:1023400088A58F938FA18F938EE292E09F938F93B6
:102350001F930F930E94B41DFF92EF928EA18F9353
:102360008DA18F9389E392E09F938F93DF92CF9219
:102370000E94B41DA601B8018091A1029091A20211
:102380000E946F08CE0181960E94DE0BCE018796D7
:102390000E94DE0B0FB6F894DEBF0FBECDBF48E83B
:1023A00051E06BE472E08091A1029091A2020E9440
:1023B0006F0868EE73E080E090E00E943504F9CF8A
:1023C000E0915A04F0915B04808D918D80959095F9
:1023D00089709927099709F478CE62E17AE780E05D
:1023E00090E00E94960800EB10E0C8010E940809E6
:1023F0008BE790E00E9408090F5F1F4F003C11051A
:10240000A1F748E851E068E572E08091A10290915F
:10241000A2020E946F08C090A102D090A20282E6A0
:1024200092E09F938F9306E612E01F930F93D601DD
:1024300014968C9114978F9313968C918F930E947E
:10244000B41DFF24F394F601F28240915E04509192
:102450005F0460E070E08091A1029091A2020E946E
:102460003A08C090A102D090A2028AE692E09F931F
:102470008F931F930F93D60113968D919C91149770
:1024800004969F938F930E94B41DF601F2824091AF
:102490005C0450915D0461E070E08091A102909134
:1024A000A2020E943A08C090A102D090A2028EE639
:1024B00092E09F938F931F930F93D60113968D9164
:1024C0009C91149708969F938F930E94B41DF601D8
:1024D000F2820FB6F894DEBF0FBECDBF80916004CC
:1024E000811103C043E751E002C040E751E062E0E0
:1024F00070E08091A1029091A2020E941A080091BE
:10250000A1021091A20282E792E09F938F9386E648
:1025100092E09F938F93D80113968D919C9114977D
:102520000C969F938F930E94B41D81E0F8018283E3
:102530000E944209AC0163E070E08091A102909199
:10254000A2020E941A0868EE73E080E090E00E9408
:1025500035040F900F900F900F900F900F9084EF15
:10256000482E55245394612C712C9FE0292E312C38
:102570000E946F04672B682B692B41F40E946F0443
:10258000623071058105910508F417C10E946F043E
:102590006093A7027093A8028093A9029093AA0265
:1025A0000091A3021091A4022091A5023091A602ED
:1025B000601771078207930740F46093A30270933A
:1025C000A4028093A5029093A6020091A302109109
:1025D000A4022091A5023091A6026B017C01C01AD1
:1025E000D10AE20AF30A970186010A3F1105210583
:1025F000310508F4E2C06093A3027093A4028093B3
:10260000A5029093A6024092140450921504609281
:102610001604709217041092180410921904109264
:102620001A0410921B0480910C0490910D04A09147
:102630000E04B0910F048093100490931104A093A2
:102640001204B09313040E946F0460930C047093FF
:102650000D0480930E0490930F040E946F04609306
:1026600008047093090480930A0490930B040E9459
:102670006F046B017C0166E772E0809148049091E1
:1026800049040E945A082AE041E050E060E070E00E
:1026900080914804909149040E94F80B6DE772E024
:1026A00080914804909149040E945A082AE0B70199
:1026B000A60180914804909149040E94F80B67E2BA
:1026C00072E080914804909149040E945A088091D8
:1026D0000C0490910D04A0910E04B0910F04B70169
:1026E000A601481B590B6A0B7B0B2AE0809148041A
:1026F000909149040E94F80B67E272E080914804CF
:10270000909149040E945A0840910C0450910D0484
:1027100060910E0470910F04809110049091110447
:10272000A0911204B0911304481B590B6A0B7B0B48
:102730002AE080914804909149040E94F80B61E8D6
:1027400072E080914804909149040E945A080E94C6
:102750006F04AB01BC012AE08091480490914904C8
:102760000E94F80B009148041091490463E872E05C
:10277000C8010E945A0866E871E0C8010E945A0820
:102780000E946F044B015C016B017C0125E0C20ECD
:10279000D11CE11CF11C0E946F04681579058A05A3
:1027A0009B0508F019C20E946F0460930C0470939B
:1027B0000D0480930E0490930F040091A1021091D8
:1027C000A202D80112968C911297882321F18D9143
:1027D0009C910E94CD0460E0F801808191810E946B
:1027E0000D09D80113966D917C9114978D919C9150
:1027F0000E945A0861E0F801808191810E940D09D0
:10280000D80115966D917C9116978D919C910E949F
:102810005A08F80112822091A00280915A049091E6
:102820005B04223059F40E943107809177048111B2
:10283000DAC10E94E2098111D6C1F7C16091630437
:102840000E94230A8091770481110DC30E94E2093E
:10285000811109C300E010E0C12CD12CFF24F394B6
:102860008091710490917204C816D9063CF5A0902D
:102870006F04B0907004A00EB11ED50112962C9179
:10288000129780915A0490915B046D917C91211173
:1028900005C00E94FE07811122C40AC0FC01808D80
:1028A000918D8095909568237923672B09F432C424
:1028B000FFEFCF1ADF0A0B5F1F4FD2CF8091610469
:1028C00090916204892B09F47AC1E0915A04F09145
:1028D0005B046781062F10E00E3611051CF5809110
:1028E0005C0490915D0480559F4F0E94080981E02F
:1028F00090E00E940809B801110F880B990B0E9403
:102900005C20209168043091690440916A045091E0
:102910006B040E94BB200E944C1B8EE790E0861B3C
:10292000970B25C0013911053CF180915C04909111
:102930005D0480559F4F0E94080981E090E00E944D
:102940000809B80161597109072E000C880B990B11
:102950000E945C20209168043091690440916A04CF
:1029600050916B040E94BB200E944C1BCB010E9423
:10297000080910926D0417C080916D04811113C075
:1029800080915C0490915D0480559F4F0E940809DE
:1029900081E090E00E94080980E090E00E94080930
:1029A00081E080936D04E0915A04F0915B046085AE
:1029B000062F10E00E36110504F580915C0490910D
:1029C0005D0480559F4F0E9408098BE090E00E94B3
:1029D0000809B801110F880B990B0E945C20209107
:1029E00068043091690440916A0450916B040E941C
:1029F000BB200E944C1BCB0128C00139110554F1AA
:102A000080915C0490915D0480559F4F0E9408095D
:102A10008BE090E00E940809B80161597109072E06
:102A2000000C880B990B0E945C2020916804309167
:102A3000690440916A0450916B040E94BB200E947B
:102A40004C1B8EE790E0861B970B0E9408091092A2
:102A50006E0417C080916E04811113C080915C04D4
:102A600090915D0480559F4F0E9408098BE090E093
:102A70000E9408098FE790E00E94080981E0809396
:102A80006E04E0915A04F0915B046581062F10E01A
:102A90000E36110514F580915C0490915D0480520E
:102AA0009F4F0E940809B801110F880B990B0E94D3
:102AB0005C2020916404309165044091660450913B
:102AC00067040E94BB200E94531B6B017C01CB0159
:102AD00099270E9460098D2D27C00139110554F1F5
:102AE00080915C0490915D0480529F4F0E94080980
:102AF000B80161597109072E000C880B990B0E94CF
:102B00005C202091640430916504409166045091EA
:102B100067040E94BB200E94531B8B01105EC801FA
:102B200099270E946009812F90E00E94600910920D
:102B30006C0445C080916C04811141C080915C049B
:102B400090915D0480529F4F0E94080980E090E0C0
:102B50000E94080980E290E00E94080981E08093C9
:102B60006C042DC0E0916F04F0917004EC0DFD1D1C
:102B7000442309F475C08281882369F0838194819C
:102B80004DA70E946509E0916F04F0917004EC0D6F
:102B9000FD1D12824DA50F5F1F4F85E0C80ED11C91
:102BA000809171049091720408171907DCF28091EA
:102BB000610490916204181619060CF472C06AE060
:102BC00070E080E090E00E9435040E944F01D0CC7C
:102BD000C8010E94CC0B4BCBC616D706E806F906F7
:102BE00008F0D9CDE0CD0E946F04A30192010E94AC
:102BF0008F2120FD02C061E001C060E089E00E94F9
:102C0000C90300915A0410915B0461E070E0C801AF
:102C10000E94FE07882309F476C068E070E0C801CE
:102C20000E94FE078111A0C16EC000915A0410914C
:102C30005B0460E170E0C8010E94FE07811108C0DA
:102C400060E470E0C8010E94FE07882309F4CFC148
:102C5000C12CD12C00E010E040E0FF24F394A0CF81
:102C6000A0915A04B0915B0458962D913C915997CC
:102C7000209530958081918182239323892B09F4BB
:102C80008ACF828181110BC0F282409160048381DE
:102C90009481442311F024FD0C970E949B0941E08C
:102CA0007ACF80915C0490915D0480559F4F0E9483
:102CB000080980916104909162048130910589F046
:102CC000029709F07CCF8BE090E00E940809E09128
:102CD0005A04F0915B04608589E693E00E94E60067
:102CE0006ECF81E090E00E940809E0915A04F091D3
:102CF0005B0490852FE730E0D901A91BB109CD0114
:102D00000E9408095CCFD8015896CD90DC90599765
:102D1000C094D094D1FE20C060E470E0C8010E944D
:102D2000FE07882331F080915E0490915F04019743
:102D30000CC060E170E0C8010E94FE07882361F0CA
:102D400080915E0490915F04019690935F0480935C
:102D50005E04FF24F39401C0F12CD5FE33C060E47F
:102D600070E0C8010E94FE07A0905C04B0905D0472
:102D7000882321F0F1E0AF1AB1080AC060E170E0E9
:102D8000C8010E94FE07882349F02FEFA21AB20A59
:102D9000B0925D04A0925C04FF24F39480915C04E3
:102DA00090915D0497FF04C010925D0410925C0442
:102DB00080915C0490915D04409724F030925D0412
:102DC00020925C04D4FE16C060E470E0C8010E944A
:102DD000FE07882319F0109260040AC060E170E0D9
:102DE000C8010E94FE07882329F081E080936004D7
:102DF000FF24F394D6FEADC060E470E0C8010E94E9
:102E0000FE07C0906104D0906204882321F041E065
:102E1000C41AD1080AC060E170E0C8010E94FE0730
:102E2000882349F05FEFC51AD50AD0926204C09298
:102E30006104FF24F394809161049091620497FFF0
:102E400006C082E090E090936204809361048091D8
:102E500061049091620403970CF47BC010926204A9
:102E60001092610476C00E946F04A30192010E9437
:102E70008F2120FDFFC061E089E00E94C90300911D
:102E80005A0410915B0461E070E0C8010E94FE07E3
:102E9000811162C060E070E1C8010E94FE078823D2
:102EA00009F4EAC0E3E0F0E0F0936204E093610427
:102EB000FF24F39460E170E0C8010E94FE078823BC
:102EC00009F4E8C081E080936004FF24F39460E09B
:102ED00074E0C8010E94FE07882309F4E6C08091CF
:102EE0005E0490915F04019690935F0480935E046A
:102EF000FF24F39460E078E0C8010E94FE07C090D0
:102F00005C04D0905D04882309F4DDC0FFEFCF1A84
:102F1000DF0AD0925D04C0925C04FF24F394809198
:102F20005C0490915D0497FF04C010925D041092C0
:102F30005C0480915C0490915D04409724F0309291
:102F40005D0420925C0464E670E080E090E00E9402
:102F50003504F11017C033CE68E070E0C8010E945C
:102F6000FE07882309F496CF109277041092730419
:102F700010927404109275041092760461E089E056
:102F80000E94C90340915E0450915F0460E070E0CC
:102F90008091A1029091A2020E943A0840915C04A3
:102FA00050915D0461E070E08091A1029091A202D5
:102FB0000E943A0880916004811103C043E751E008
:102FC00002C040E751E062E070E08091A102909180
:102FD000A2020E941A080E944209AC0163E070E05C
:102FE0008091A1029091A2020E941A08E8CDF801F6
:102FF000808D918D8095909580759927892B59F1B9
:1030000000E010E0C12CD12C8091710490917204E9
:10301000C816D9060CF0CBCDE0916F04F091700486
:10302000E00FF11FA0915A04B0915B0458962D91C6
:103030003C915997209530958081918182239323EB
:10304000892B19F48281811109C09FEFC91AD90A0D
:103050000B5F1F4FD9CF0E94B609A9CD8381948100
:103060000E946509E0916F04F0917004E00FF11F78
:103070001282EBCF60E000CF60E070E4C8010E94F4
:10308000FE07882329F0109262041092610410CF89
:10309000F12C10CF60E470E0C8010E94FE07882385
:1030A00009F415CF1092600410CF60E071E0C80100
:1030B0000E94FE07882309F41DCF80915E04909141
:1030C0005F04019711CF60E072E0C8010E94FE0723
:1030D000882309F424CF21E0C21AD1081ACFD501E0
:1030E0001296FC92129713968D919C9114970E94C0
:1030F0009B0980916004882309F4DACBE0916F0486
:10310000F0917004E00FF11F838194810C970E946D
:103110009B09CECBF5011282838194810E946509BF
:10312000C7CBEF92FF920F931F93CF93DF931F9222
:10313000CDB7DEB77C01FC0100811181C801698334
:103140000E9479216981681719F0C8010E948121C4
:10315000C7010F90DF91CF911F910F91FF90EF90DA
:103160000895AF92BF92CF92DF92EF92FF920F93AA
:103170001F93CF93DF9300D0CDB7DEB75B0180E321
:1031800090E09A83898360E0CE0101960E949118B5
:10319000D50114968D919C91159701978E3C934083
:1031A00008F044C0C12CD12C82E3E82EF12C00E0C1
:1031B00010E0D50114968D919C911597C816D906EB
:1031C00000F5D501ED91FC91309729F41092AB02F6
:1031D000EBEAF2E002C0EC0DFD1D608187EF860F87
:1031E000823058F0FA82E982CE0101960E9491184D
:1031F000BFEFEB1AFB0A0F5F1F4FEFEFCE1ADE0A8D
:10320000D8CF0115110581F0FA82E98260E0CE0184
:1032100001960E94911881E390E09A83898360E08F
:10322000CE0101960E949118C80102C08FEF9FEF56
:103230000F900F90DF91CF911F910F91FF90EF9022
:10324000DF90CF90BF90AF90089580916F049091E0
:103250007004009749F020917104309172041216A5
:10326000130614F40C941C1C08950F931F930E94D2
:103270006F04609371037093720380937303909350
:103280007403E0916903F0916A030680F781E02DF1
:1032900089E693E0099597FF1FC00E946F04009193
:1032A0007103109172032091730330917403DC0158
:1032B000CB01801B910BA20BB30B00916D031091FE
:1032C0006E0320916F033091700380179107A2075E
:1032D000B307B8F28FEF9FEF1F910F910895EF9210
:1032E000FF920F931F93CF93DF9300D0CDB7DEB73C
:1032F0008C0168E871E00E94E30B0E94351997FD8C
:103300001EC089831A82F801E480F580FFEFEF1A6E
:10331000FF0AB701C8010E94A50B882371F3F801C9
:103320002081318184819581BE016F5F7F4F820F43
:10333000931F0E94931DF801F582E482DECFC8013D
:103340000F900F90DF91CF911F910F91FF90EF9011
:103350000895CF93DF93FC0124813581232B71F0F5
:10336000FB01DC01CD91DC9160817181CE010E9475
:103370009A1D009719F08C1B9D0B02C08FEF9FEFD9
:10338000DF91CF9108950F931F93CF93DF938C011B
:10339000EB01FC01808191810097B1F06881798116
:1033A0006115710579F0428153812C813D8142176D
:1033B000530740F00E94931D8C819D81F8019583F5
:1033C000848313C00E941C1C88819981F801918319
:1033D00080838A819B81938382838C819D81958365
:1033E0008483198218821B821A821D821C82DF91BB
:1033F000CF911F910F910895BF92CF92DF92EF92DC
:10340000FF920F931F93CF93DF937C016B01EA012F
:1034100089012417350720F48D2FE901042F182F77
:1034200068E871E0C7010E94E30BD60114968D9104
:103430009C911597C817D90748F58017910708F48C
:103440008C01D601ED91FC911197E00FF11FB08036
:1034500010824D915C91BA016C0F7D1F6115710551
:1034600061F0FB0101900020E9F73197AF01461BA5
:10347000570BC7010E94580B03C0C7010E94CC0B19
:10348000D601ED91FC91E00FF11FB082C701DF91F1
:10349000CF911F910F91FF90EF90DF90CF90BF9051
:1034A0000895CF93DF93EC01FB018617970761F036
:1034B000608171816115710529F0448155810E94F7
:1034C000580B02C00E94CC0BCE01DF91CF91089522
:1034D000E9E6F3E01382128288EE93E0A0E0B0E028
:1034E00084839583A683B7832CE431E031832083E2
:1034F00025EC30E03587248724EC30E037872687B9
:1035000020EC30E0318B208B21EC30E0338B228BB0
:1035100022EC30E0358B248B26EC30E0378B268B89
:10352000118E128E138E148EE6E0F4E0168217824E
:1035300010861186128613861486158616861786BF
:10354000108A118A128A138A148A158AEEE4F4E02A
:103550001382128284839583A683B7838CE591E0DE
:1035600091838083EAE5F4E013821282158214824B
:10357000168210861782118686E092EFA4E9B2E4E3
:1035800082879387A487B5878BE19EE9A2E9BFE391
:1035900086879787A08BB18B128A138A148A8FEF44
:1035A0009FEF908F878B118E128E138E148E158E37
:1035B0000895EE0FFF1F0590F491E02D09945058E7
:1035C000BB27AA270E94F71A0C943F210E943121A1
:1035D00038F00E94382120F039F49F3F19F426F486
:1035E0000C942E210EF4E095E7FB0C942821E92F92
:1035F0000E94502158F3BA17620773078407950792
:1036000020F079F4A6F50C9472210EF4E0950B2EBF
:10361000BA2FA02D0B01B90190010C01CA01A00124
:103620001124FF27591B99F0593F50F4503E68F17F
:103630001A16F040A22F232F342F4427585FF3CFC0
:10364000469537952795A795F0405395C9F77EF491
:103650001F16BA0B620B730B840BBAF09150A1F0DA
:10366000FF0FBB1F661F771F881FC2F70EC0BA0F60
:10367000621F731F841F48F4879577956795B795E8
:10368000F7959E3F08F0B0CF9395880F08F09927E3
:10369000EE0F9795879508950E94531B6894B1117A
:1036A0000C94732108950E94582188F09F5798F038
:1036B000B92F9927B751B0F0E1F0660F771F881F37
:1036C000991F1AF0BA95C9F714C0B13091F00E9451
:1036D0007221B1E008950C947221672F782F88270A
:1036E000B85F39F0B93FCCF3869577956795B39578
:1036F000D9F73EF490958095709561957F4F8F4FE7
:103700009F4F08950E94972008F48FEF0895CF935C
:10371000DF938230910510F482E090E0E0917A042A
:10372000F0917B0420E030E0C0E0D0E0309711F170
:103730004081518148175907C0F04817590761F473
:1037400082819381209719F09B838A832BC0909369
:103750007B0480937A0426C02115310519F04217A5
:10376000530718F49A01BE01DF01EF010280F381D3
:10377000E02DDCCF2115310509F1281B390B243050
:10378000310590F412968D919C91139761157105F6
:1037900021F0FB019383828304C090937B04809388
:1037A0007A04FD01329644C0FD01E20FF31F8193BC
:1037B0009193225031092D933C933AC02091780483
:1037C00030917904232B41F4209127013091280175
:1037D00030937904209378042091250130912601BB
:1037E0002115310541F42DB73EB740912901509183
:1037F0002A01241B350BE0917804F0917904E2173B
:10380000F307A0F42E1B3F0B2817390778F0AC0103
:103810004E5F5F4F2417350748F04E0F5F1F5093E0
:103820007904409378048193919302C0E0E0F0E042
:10383000CF01DF91CF9108950F931F93CF93DF9323
:10384000009709F48CC0FC01329713821282009118
:103850007A0410917B040115110581F420813181D6
:10386000820F931F2091780430917904281739072B
:1038700079F5F0937904E093780471C0D80140E0C1
:1038800050E0AE17BF0750F412962D913C9113975C
:10389000AD012115310509F1D901F3CF9D01DA01FF
:1038A0003383228360817181860F971F821793076C
:1038B00069F4EC0128813981260F371F2E5F3F4FB5
:1038C000318320838A819B8193838283452B29F4D2
:1038D000F0937B04E0937A0442C01396FC93EE933A
:1038E0001297ED01499159919E01240F351FE2175E
:1038F000F30771F480819181840F951F02961196D0
:103900009C938E938281938113969C938E931297AE
:10391000E0E0F0E0D80112968D919C91139700970A
:1039200019F0F8018C01F6CF8D919C9198012E5FD2
:103930003F4F820F931F209178043091790428170C
:10394000390769F4309729F410927B0410927A04B5
:1039500002C0138212821093790400937804DF91DD
:10396000CF911F910F910895A0E0B0E0EAEBFCE148
:103970000C94D421EC01009721F4CB010E94871B09
:10398000B8C0FC01E60FF71F9C0122503109E21775
:10399000F30708F4ACC0D9010D911C9111970617DB
:1039A0001707B0F00530110508F49FC0C80104974F
:1039B0008617970708F499C002501109061B170BC8
:1039C000019311936D937C93CF010E941C1C8DC0B9
:1039D0005B01A01AB10A4C01800E911EA0917A04DD
:1039E000B0917B0440E050E0E12CF12C109709F4F9
:1039F0004AC0A815B905D1F56D907C901197630167
:103A000082E0C80ED11CCA14DB0480F1A3014A195C
:103A10005B096A0182E0C80ED11C1296BC90129715
:103A20001396AC91B5E0CB16D10440F0B282A383DB
:103A300051834083D9016D937C930AC00E5F1F4F61
:103A4000C301800F911FF90191838083EB2DFA2F21
:103A5000E114F10431F0D7011396FC93EE93129721
:103A600044C0F0937B04E0937A043FC08D919C9115
:103A700011974817590708F4AC017D0112960D9073
:103A8000BC91A02DB3CF80917804909179048815D2
:103A90009905E1F446175707C8F4809125019091E4
:103AA0002601009741F48DB79EB7409129015091AE
:103AB0002A01841B950BE817F907C8F4F0937904E1
:103AC000E0937804F901718360830FC0CB010E94F9
:103AD000871B7C01009759F0A801BE010E94831D3D
:103AE000CE010E941C1CC70104C0CE0102C080E0B0
:103AF00090E0CDB7DEB7EEE00C94F02181E090E0ED
:103B0000F8940C941622FB01DC0102C001900D9286
:103B100041505040D8F70895DC0101C06D934150E9
:103B20005040E0F70895FB01DC0101900D92002068
:103B3000E1F70895FB0151915523A9F0BF01DC0184
:103B40004D9145174111E1F759F4CD010190002045
:103B500049F04D9140154111C9F3FB014111EFCFDF
:103B600081E090E001970895AEE0B0E0EAEBFDE17E
:103B70000C94DE210D891E8986E08C831A830983CB
:103B80008FEF9FE79E838D83AE01475E5F4F6F8906
:103B9000788DCE0101960E94D71D2F813885F801BE
:103BA000E20FF31F10822E96E4E00C94FA21ACE0B1
:103BB000B0E0EDEDFDE10C94D0217C016B018A01B8
:103BC000FC0117821682838181FFBDC1CE0101965F
:103BD0004C01F7019381F60193FD859193FF81914B
:103BE0006F01882309F4ABC1853239F493FD8591C7
:103BF00093FF81916F01853229F4B70190E00E9413
:103C0000BF1FE7CF512C312C20E02032A0F48B32A3
:103C100069F030F4803259F0833269F420612CC0AD
:103C20008D3239F0803339F4216026C0226024605F
:103C300023C0286021C027FD27C030ED380F3A305F
:103C400078F426FF06C0FAE05F9E300D1124532E53
:103C500013C08AE0389E300D1124332E20620CC030
:103C60008E3221F426FD6BC1206406C08C3611F41F
:103C7000206802C0883641F4F60193FD859193FFD8
:103C800081916F018111C1CF982F9F7D9554933001
:103C900028F40C5F1F4FFFE3F9830DC0833631F02A
:103CA000833771F0833509F05BC022C0F801808151
:103CB00089830E5F1F4F44244394512C540115C037
:103CC0003801F2E06F0E711CF801A080B18026FF70
:103CD00003C0652D70E002C06FEF7FEFC5012C8738
:103CE0000E94B41F2C0183012C852F77222E17C030
:103CF0003801F2E06F0E711CF801A080B18026FF40
:103D000003C0652D70E002C06FEF7FEFC5012C8707
:103D10000E94A91F2C012C852068222E830123FCE0
:103D20001BC0832D90E048165906B0F4B70180E21D
:103D300090E00E94BF1F3A94F4CFF50127FC8591D3
:103D400027FE81915F01B70190E00E94BF1F3110F3
:103D50003A94F1E04F1A51084114510471F7E5C04B
:103D6000843611F0893639F5F80127FF07C06081E4
:103D70007181828193810C5F1F4F08C060817181C6
:103D8000072E000C880B990B0E5F1F4F2F76722E9B
:103D900097FF09C090958095709561957F4F8F4FE3
:103DA0009F4F2068722E2AE030E0A4010E94F71F86
:103DB000A82EA81844C0853729F42F7EB22E2AE0F9
:103DC00030E025C0F22FF97FBF2E8F36C1F018F4F6
:103DD000883579F0B4C0803719F0883721F0AFC04A
:103DE0002F2F2061B22EB4FE0DC08B2D8460B82E13
:103DF00009C024FF0AC09F2F9660B92E06C028E094
:103E000030E005C020E130E002C020E132E0F801FE
:103E1000B7FE07C060817181828193810C5F1F4F63
:103E200006C06081718180E090E00E5F1F4FA401A9
:103E30000E94F71FA82EA818FB2DFF777F2E76FE75
:103E40000BC0372D3E7FA51450F474FE0AC072FCDF
:103E500008C0372D3E7E05C0BA2C372D03C0BA2CC2
:103E600001C0B52C34FF0DC0FE01EA0DF11D8081AB
:103E7000803311F4397E09C032FF06C0B394B39485
:103E800004C0832F867809F0B39433FD13C030FF4C
:103E900006C05A2CB31418F4530C5B18B32CB3148B
:103EA00068F4B70180E290E03C870E94BF1FB394A2
:103EB0003C85F5CFB31410F43B1801C0312C34FF0E
:103EC00012C0B70180E390E03C870E94BF1F3C8591
:103ED00032FF17C031FD03C088E790E002C088E5DB
:103EE00090E0B7010CC0832F867859F031FF02C0F3
:103EF0008BE201C080E237FD8DE2B70190E00E94C5
:103F0000BF1FA51438F4B70180E390E00E94BF1FE3
:103F10005A94F7CFAA94F401EA0DF11D8081B701FC
:103F200090E00E94BF1FA110F5CF332009F451CEBD
:103F3000B70180E290E00E94BF1F3A94F6CFF701EC
:103F40008681978102C08FEF9FEF2C96E2E10C945F
:103F5000EC21FC010590615070400110D8F780956C
:103F600090958E0F9F1F0895FC0161507040019045
:103F70000110D8F7809590958E0F9F1F08950F938D
:103F80001F93CF93DF93FB01238121FD03C08FEFAC
:103F90009FEF28C022FF16C04681578124813581BA
:103FA0004217530744F4A081B1819D012F5F3F4F19
:103FB000318320838C93268137812F5F3F4F378356
:103FC000268310C0EB01092F182F0084F185E02D06
:103FD0000995892BE1F68E819F8101969F838E83BF
:103FE000812F902FDF91CF911F910F910895FA01AA
:103FF000AA27283051F1203181F1E8946F936E7F28
:104000006E5F7F4F8F4F9F4FAF4FB1E03ED0B4E018
:104010003CD0670F781F891F9A1FA11D680F791F59
:104020008A1F911DA11D6A0F711D811D911DA11D6A
:1040300020D009F468943F912AE0269F112430197A
:10404000305D3193DEF6CF010895462F4770405D15
:104050004193B3E00FD0C9F7F6CF462F4F70405DC4
:104060004A3318F0495D31FD4052419302D0A9F71F
:10407000EACFB4E0A6959795879577956795BA9519
:10408000C9F700976105710508959B01AC010A2EDF
:1040900006945795479537952795BA95C9F7620FB6
:1040A000731F841F951FA01D08950E94972008F478
:1040B00081E00895E89409C097FB3EF490958095BF
:1040C000709561957F4F8F4F9F4F9923A9F0F92FDE
:1040D00096E9BB279395F695879577956795B7955C
:1040E000F111F8CFFAF4BB0F11F460FF1BC06F5F42
:1040F0007F4F8F4F9F4F16C0882311F096E911C054
:10410000772321F09EE8872F762F05C0662371F074
:1041100096E8862F70E060E02AF09A95660F771F88
:10412000881FDAF7880F9695879597F90895990F64
:104130000008550FAA0BE0E8FEEF16161706E80771
:10414000F907C0F012161306E407F50798F0621B92
:10415000730B840B950B39F40A2661F0232B242B67
:10416000252B21F408950A2609F4A140A6958FEF86
:10417000811D811D08950E94CE200C943F210E9434
:10418000312138F00E94382120F0952311F00C9451
:1041900028210C942E2111240C9473210E9450216B
:1041A00070F3959FC1F3950F50E0551F629FF0018A
:1041B000729FBB27F00DB11D639FAA27F00DB11DA3
:1041C000AA1F649F6627B00DA11D661F829F22272C
:1041D000B00DA11D621F739FB00DA11D621F839FB3
:1041E000A00D611D221F749F3327A00D611D231F89
:1041F000849F600D211D822F762F6A2F11249F57D7
:1042000050409AF0F1F088234AF0EE0FFF1FBB1FD9
:10421000661F771F881F91505040A9F79E3F510598
:1042200080F00C9428210C9473215F3FE4F3983EB6
:10423000D4F3869577956795B795F795E7959F5F42
:10424000C1F7FE2B880F911D9695879597F90895D4
:1042500097F99F6780E870E060E008959FEF80EC39
:10426000089500240A9416161706180609060895DC
:1042700000240A9412161306140605060895092E42
:104280000394000C11F4882352F0BB0F40F4BF2BB1
:1042900011F460FF04C06F5F7F4F8F4F9F4F0895F1
:1042A00057FD9058440F551F59F05F3F71F04795E7
:1042B000880F97FB991F61F09F3F79F087950895CC
:1042C000121613061406551FF2CF4695F1DF08C0EB
:1042D000161617061806991FF1CF86957105610508
:1042E00008940895E894BB2766277727CB0197F9B0
:1042F0000895F999FECF92BD81BDF89A992780B5AE
:104300000895262FF999FECF1FBA92BD81BD20BD19
:104310000FB6F894FA9AF99A0FBE01960895A1E2A1
:104320001A2EAA1BBB1BFD010DC0AA1FBB1FEE1F2F
:10433000FF1FA217B307E407F50720F0A21BB30B7A
:10434000E40BF50B661F771F881F991F1A9469F7F6
:1043500060957095809590959B01AC01BD01CF0152
:104360000895052E97FB1EF400940E94C82157FD66
:1043700007D00E948F2107FC03D04EF40C94C82173
:1043800050954095309521953F4F4F4F5F4F089581
:1043900090958095709561957F4F8F4F9F4F0895B1
:1043A0002F923F924F925F926F927F928F929F9245
:1043B000AF92BF92CF92DF92EF92FF920F931F9333
:1043C000CF93DF93CDB7DEB7CA1BDB0B0FB6F894E4
:1043D000DEBF0FBECDBF09942A88398848885F8424
:1043E0006E847D848C849B84AA84B984C884DF8095
:1043F000EE80FD800C811B81AA81B981CE0FD11D79
:104400000FB6F894DEBF0FBECDBFED010895A29F99
:10441000B001B39FC001A39F700D811D1124911D98
:10442000B29F700D811D1124911D089510E0C2E608
:10443000D0E004C0FE010E94D91A2196C336D107EC
:06444000C9F7F894FFCF5C
:10444600014300005A5A5A5A5A014F00FFFF03000F
:104456000000014D000001014400010300000000BE
:10446600014300010000007C048000010000000000
:1044760000000092017A0B58057E012C030B030104
:1044860045005A5A5A5A5A5A00000000E6007A0B5A
:10449600AF008D00A1002D01000000002D02FD01DE
:1044A600F501E101D201D1010000000046037A0BBB
:1044B6004F4E004F464600564D4450565F317C31B4
:1044C6005F564D4450560D0A005741524E2E20530A
:1044D6004C4F5720455845432E0020204445425511
:1044E60047204255494C4420202000666F756E6473
:1044F6002E00436F6E74726F6C6C6572206E6F74F3
:1045060000666F756E642E205265747279696E67E7
:104516002E00636F6E74726F6C6C65723A20005574
:104526006E6B6E6F776E004475616C53686F636B6C
:1045360020466F756E6400477569746172486572CE
:104546006F20466F756E640057616974696E6720E7
:10455600666F722073657269616C0046616C736583
:10456600003A235B005D233A0054727565004545A9
:1045760050524F4D3A2025730052653A253030305F
:10458600642057723A25303030640055706C6F6184
:104596006420446F6E652E00496E697420446F6E08
:1045A60065005453500025732000434820004F43B4
:1045B600540045464600564D4450455F003A323A4F
:1045C600007C005F564D44504500252D3473002570
:0E45D6003032642020004D4F44004558500004
:107E0000112484B714BE81FFF0D085E080938100F7
:107E100082E08093C00088E18093C10086E0809377
:107E2000C20080E18093C4008EE0C9D0259A86E02C
:107E300020E33CEF91E0309385002093840096BBD3
:107E4000B09BFECF1D9AA8958150A9F7CC24DD24C4
:107E500088248394B5E0AB2EA1E19A2EF3E0BF2EE7
:107E6000A2D0813461F49FD0082FAFD0023811F036
:107E7000013811F484E001C083E08DD089C08234E0
:107E800011F484E103C0853419F485E0A6D080C0E4
:107E9000853579F488D0E82EFF2485D0082F10E0AE
:107EA000102F00270E291F29000F111F8ED06801E7
:107EB0006FC0863521F484E090D080E0DECF843638
:107EC00009F040C070D06FD0082F6DD080E0C81688
:107ED00080E7D80618F4F601B7BEE895C0E0D1E017
:107EE00062D089930C17E1F7F0E0CF16F0E7DF06D8
:107EF00018F0F601B7BEE89568D007B600FCFDCFD4
:107F0000A601A0E0B1E02C9130E011968C91119780
:107F100090E0982F8827822B932B1296FA010C0160
:107F200087BEE89511244E5F5F4FF1E0A038BF0790
:107F300051F7F601A7BEE89507B600FCFDCF97BE46
:107F4000E89526C08437B1F42ED02DD0F82E2BD052
:107F50003CD0F601EF2C8F010F5F1F4F84911BD097
:107F6000EA94F801C1F70894C11CD11CFA94CF0C13
:107F7000D11C0EC0853739F428D08EE10CD085E9AC
:107F80000AD08FE07ACF813511F488E018D01DD067
:107F900080E101D065CF982F8091C00085FFFCCF94
:107FA0009093C60008958091C00087FFFCCF809118
:107FB000C00084FD01C0A8958091C6000895E0E648
:107FC000F0E098E1908380830895EDDF803219F02E
:107FD00088E0F5DFFFCF84E1DECF1F93182FE3DFCA
:107FE0001150E9F7F2DF1F91089580E0E8DFEE27F6
:047FF000FF270994CA
:027FFE00040479
:0400000300007E007B
:00000001FF