:100000000C9463000C948B000C948B000C948B006C
:100010000C948B000C948B000C948B000C948B0034
:100020000C948B000C948B000C948B000C948B0024
:100030000C948B000C948B000C948B000C948B0014
:100040000C946E040C948B000C946E030C94480377
:100050000C948B000C948B000C948B000C948B00F4
:100060000C94E4050C948B00000000002300260093
:10007000290000000000250028002B0004040404CF
:100080000404040402020202020203030303030342
:10009000010204081020408001020408102001021F
:1000A0000408102000000000240027002A0000009F
:1000B0000008000201000003040700000000000027
:1000C0000000CE1A321A11241FBECFEFD8E0DEBFD7
:1000D000CDBF12E0A0E0B1E0E2E2F5E402C005909D
:1000E0000D92A23EB107D9F724E0A2EEB2E001C022
:1000F0001D92A638B207E1F710E0C2E6D0E004C0D6
:100100002197FE010E943E1BC136D107C9F70E940C
:100110007D0D0C9484220C940000FC01918D828D45
:10012000981761F0828DDF01A80FB11D5D968C914B
:10013000928D9F5F9F73928F90E008958FEF9FEF56
:100140000895FC01918D828D981731F0828DE80F12
:10015000F11D858D90E008958FEF9FEF0895FC01CC
:10016000918D228D892F90E0805C9F4F821B910999
:100170008F739927089585EA93E00E94AF0021E0EC
:10018000892B09F420E0822F0895FC01848DDF0182
:10019000A80FB11DA35ABF4F2C91848D90E00196FA
:1001A0008F739927848FA689B7892C93A089B189E9
:1001B0008C9180648C93938D848D981306C00288F3
:1001C000F389E02D80818F7D80830895EF92FF92E7
:1001D0000F931F93CF93DF93EC0181E0888F9B8D6A
:1001E0008C8D981305C0E889F989808185FD24C02C
:1001F000F62E0B8D10E00F5F1F4F0F731127E02EAF
:100200008C8DE8120CC00FB607FCFACFE889F9898B
:10021000808185FFF5CFCE010E94C500F1CF8B8D87
:10022000FE01E80FF11DE35AFF4FF0820B8FEA89C0
:10023000FB898081806207C0EE89FF896083E8893D
:10024000F98980818064808381E090E0DF91CF91A3
:100250001F910F91FF90EF900895CF93DF93EC01E2
:10026000888D8823C9F0EA89FB89808185FD05C0D6
:10027000A889B9898C9186FD0FC00FB607FCF5CF10
:10028000808185FFF2CFA889B9898C9185FFEDCF58
:10029000CE010E94C500E7CFDF91CF91089580E0A5
:1002A00090E0892B29F00E94BB0081110C94000082
:1002B00008953FB7F8948091A1039091A203A09173
:1002C000A303B091A40326B5A89B05C02F3F19F046
:1002D0000196A11DB11D3FBFBA2FA92F982F8827C6
:1002E000820F911DA11DB11DBC01CD0142E0660F21
:1002F000771F881F991F4A95D1F7089521E001C003
:10030000220F6A95EAF7DC011C962C931C971A962B
:100310005C934E931997ED91FC910084F185E02D4B
:1003200060E00994DC01ED91FC910284F385E02DFD
:1003300041E0099581E090E008950895089585EDE4
:100340008093BC008091BC0084FDFCCF10927903A7
:10035000089540910A03262F30E0240F311D2132E9
:100360003105DCF4209179032430C9F4FC0180E0EC
:1003700090E0861758F430910A032191DC01A851CE
:10038000BD4FA30FB11D2C930196F3CF80910A03AB
:10039000680F60930A0380E0089581E0089582E089
:1003A00008950895E0917B0380917A03E81730F473
:1003B000F0E0E458FC4F808190E008958FEF9FEFCC
:1003C000089590917B0380917A03981750F4E92F58
:1003D000F0E0E458FC4F208130E09F5F90937B0376
:1003E00002C02FEF3FEFC901089580917A0390E09A
:1003F00020917B03821B91090895CF92DF92EF92A7
:10040000FF920F931F93CF93DF937C01262F972F9B
:100410008A0180912F03882391F0C62FD72F6E0178
:10042000C40ED51ECC15DD0571F06991D701ED9193
:10043000FC910190F081E02DC7010995F3CF642F65
:10044000822F0E94A901C801DF91CF911F910F91C6
:10045000FF90EF90DF90CF900895CF93DF931F929E
:10046000CDB7DEB7698320912F032223D1F02091ED
:100470005103203240F021E030E0FC01338322833D
:1004800080E090E015C080915203E82FF0E0E05D3D
:10049000FC4F998190838F5F809352038093510327
:1004A00005C061E0CE0101960E94A90181E090E0C3
:1004B0000F90DF91CF910895CF93FC0123812223E8
:1004C00009F46EC09181909569236083C28181E0B7
:1004D00080932F03C0935003109252031092510344
:1004E00082E494E00E942D0280915103813208F051
:1004F0004AC0209179032111FCCF92E090937903B7
:1005000091E0909378039FEF909377031092760396
:1005100080937503A0E3B3E043E553E0FA019E2F17
:10052000941B981718F49D919193F9CF109274032E
:1005300080917403CC0FC82BC09374038091730314
:10054000813061F410927303809174038093BB0037
:100550008091BC0083FDF8CF85EC01C085EE8093CF
:10056000BC00809179038230E1F3809177038F3F63
:1005700079F080917703803241F080917703803366
:1005800031F024E005C021E003C022E001C023E0F7
:10059000109252031092510310922F0330E002C0C8
:1005A00020E030E081E090E0232B11F080E090E04B
:1005B000CF910895EF92FF920F931F93CF938C01E9
:1005C000FC01759684E0C0E060FF02C09081C92BF9
:1005D0006695815031968111F7CF413011F4F801C1
:1005E0004489F8018585C82BC42B7801FEE0EF0E05
:1005F000F11CF80162896C2BC7010E945C02F801B2
:10060000628960956C23C701CF911F910F91FF9074
:10061000EF900C945C020F931F93CF93DF93062F00
:100620000F70423019F440E0602F10C0142F262FB5
:10063000EC0130E0B90184E0759567958A95E1F7A2
:10064000CE010E94DA02412F602FCE01DF91CF91BF
:100650001F910F910C94DA02FC0184858823A9F084
:10066000218532852115310519F4611106C007C0B5
:100670002130310521F4611102C0858701C0158642
:100680006585CF010E960C945C0208950E94E31DCF
:100690001F920F920FB60F9211242F933F934F93F7
:1006A0005F936F937F938F939F93AF93BF93EF93DA
:1006B000FF9385EA93E00E94C500FF91EF91BF91FF
:1006C000AF919F918F917F916F915F914F913F91EA
:1006D0002F910F900FBE0F901F9018951F920F92A1
:1006E0000FB60F9211242F938F939F93EF93FF9345
:1006F000E091B503F091B6038081E091BB03F091E6
:10070000BC0382FD12C090818091BE038F5F8F7306
:100710002091BF03821751F0E091BE03F0E0EB554A
:10072000FC4F958F8093BE0301C08081FF91EF91B4
:100730009F918F912F910F900FBE0F901F90189542
:1007400090E0FC01E255FF4F3491FC01E057FF4F70
:100750002491FC01E458FF4FE491EE2309F43BC0DF
:10076000332339F1333091F038F43130A9F032309D
:1007700001F584B58F7D12C0373091F03830A1F08B
:100780003430B9F4809180008F7D03C08091800067
:100790008F77809380000DC084B58F7784BD09C0AA
:1007A0008091B0008F7703C08091B0008F7D8093DF
:1007B000B000F0E0EE0FFF1FEE58FF4FA591B4918F
:1007C0008FB7F894EC91611103C020952E2301C0DE
:1007D0002E2B2C938FBF0895CF93DF9390E0FC01D5
:1007E000E057FF4F2491FC01E458FF4F8491882388
:1007F00061F190E0880F991FFC01EC55FF4FC59106
:10080000D491FC01EE58FF4FA591B491611109C03C
:100810009FB7F8948881209582238883EC912E23BA
:100820000BC0623061F49FB7F8943881822F8095B5
:1008300083238883EC912E2B2C939FBF06C08FB708
:10084000F894E8812E2B28838FBFDF91CF910895F4
:100850008F929F92AF92BF92CF92DF92EF92FF92D0
:100860006B017C010E9459014B015C01C114D10450
:10087000E104F104F1F00E945901DC01CB01881977
:100880009909AA09BB09883E9340A105B10570F3F7
:1008900021E0C21AD108E108F10888EE880E83E051
:1008A000981EA11CB11CC114D104E104F10419F774
:1008B000DDCFFF90EF90DF90CF90BF90AF909F90F3
:1008C0008F9008952FB7F89460919D0370919E03C7
:1008D00080919F039091A0032FBF08951F920F92C4
:1008E0000FB60F9211242F933F938F939F93AF9343
:1008F000BF9380919D0390919E03A0919F03B0911F
:10090000A00330919C0323E0230F2D3720F40196A0
:10091000A11DB11D05C026E8230F0296A11DB11D22
:1009200020939C0380939D0390939E03A0939F0329
:10093000B093A0038091A1039091A203A091A3037F
:10094000B091A4030196A11DB11D8093A1039093C2
:10095000A203A093A303B093A403BF91AF919F916F
:100960008F913F912F910F900FBE0F901F90189570
:10097000DC01ED91FC910284F385E02D40E00994C7
:1009800061E00E94B8048BE39FE10197F1F70895BD
:100990000F931F93CF93DF93EC01423018F08C81BB
:1009A00088608C834F836887222329F0413019F4B3
:1009B0008C8184608C8364E670E080E090E00E942B
:1009C00028046C8164FD31C0E881F9810284F385DB
:1009D000E02D42E063E0CE0109950BE416E4C80186
:1009E0000197F1F7E881F9810284F385E02D42E077
:1009F00063E0CE010995C8010197F1F7E881F9811B
:100A00000284F385E02D42E063E0CE01099583E5A1
:100A100092E00197F1F7E881F9810284F385E02DF6
:100A200042E062E0CE01099516C06062CE010E94EC
:100A3000B8048BE496E40197F1F76C816062CE0113
:100A40000E94B80483E592E00197F1F76C8160623F
:100A5000CE010E94B8046C816062CE010E94B8048D
:100A600084E08D836CE0CE010E94B804CE010E9428
:100A7000C00482E08E8366E0CE010E94B804E88163
:100A8000F9810084F185E02D6FEFCE01DF91CF91E8
:100A90001F910F910994FF920F931F93CF93DF93B0
:100AA000EC01162F042FF22E8B85888B10927B037E
:100AB00010927A031092520310925103109279030C
:100AC00081E0809378031092730361E082E10E94D9
:100AD000A00361E083E10E94A0038091B9008E7FB2
:100AE0008093B9008091B9008D7F8093B90088E42C
:100AF0008093B80085E48093BC0088899091790345
:100B00009111FCCF91E090937903909378032FEFAC
:100B100020937703109276031092750390937403D9
:100B200090917403880F892B8093740380917303D1
:100B3000813061F410927303809174038093BB0041
:100B40008091BC0083FDF8CF85EC01C085EE8093D9
:100B5000BC00809179038130E1F3809176038111AB
:100B600003C08091760301C081E0A3E5B3E02CE7E8
:100B700033E0F9019E2F921B981718F49D919193E1
:100B8000F9CF10927B0380937A0391E0811101C029
:100B900090E0998B82E494E00E94E1018E8789893C
:100BA000882339F01F861C8260E0CE010E960E94D9
:100BB0005C022F2D402F612FCE01DF91CF911F912D
:100BC0000F91FF900C94C8041F920F920FB60F92D2
:100BD00011242F933F934F935F936F937F938F9342
:100BE0009F93AF93BF93EF93FF938091B900887F5A
:100BF000803609F49CC068F5883209F45BC090F433
:100C0000803109F454C038F4882309F4F6C08830E0
:100C100009F44DC0F6C0883109F44CC0803209F4A3
:100C20005DC0EFC0803409F468C048F4803309F433
:100C300055C0883309F0E5C080937703D8C080356C
:100C400009F44FC0883509F45DC0883409F0D9C073
:100C5000D6C0883909F4C7C0A8F4883709F467C03A
:100C600038F4883609F463C0803709F460C0C9C01D
:100C7000883809F4B8C0803909F45FC0803809F0B9
:100C8000C0C05BC0803B09F486C038F4803A09F4E8
:100C900066C0883A09F47FC0B4C0803C09F4A7C09C
:100CA000883C09F4A4C0883B09F48AC0AAC080919A
:100CB000740310C09091760380917503981770F5B6
:100CC000E091760381E08E0F80937603F0E0ED5A99
:100CD000FC4F80818093BB0085EC86C080937703B6
:100CE0008EC0E091760381E08E0F80937603809131
:100CF000BB00F0E0ED5AFC4F808390917603809129
:100D000075036EC0E091760381E08E0F80937603C9
:100D10008091BB00F0E0ED5AFC4F80838091780316
:100D200081116DC081E08093730384EA61C083E028
:100D30008093790310922E03CFCF80912E038032BF
:100D400008F051C0E0912E0381E08E0F80932E03B6
:100D50008091BB00F0E0E25FFC4F8083BDCF85EC6B
:100D60008093BC001092790380912E03803230F47E
:100D7000E0912E03F0E0E25FFC4F108260912E03C1
:100D800070E0E0910C03F0910D038EE093E0099583
:100D900010922E0336C084E08093790310920B03E7
:100DA00010920A03E0910803F091090309958091DC
:100DB0000A03811105C081E080930A031092E802C2
:100DC000E0910B0381E08E0F80930B03F0E0E8517C
:100DD000FD4F80818093BB0090910B0380910A03AB
:100DE000981708F479CF85E88093BC000AC085EC99
:100DF0008093BC001092790304C0109277030E9484
:100E00009F01FF91EF91BF91AF919F918F917F9142
:100E10006F915F914F913F912F910F900FBE0F9067
:100E20001F90189580E090E00E94E72191E08033C8
:100E300009F490E0892F08958F929F92AF92BF920C
:100E4000DF92EF92FF920F931F93CF93DF93CDB773
:100E5000DEB72C970FB6F894DEBF0FBECDBF8C0166
:100E60004A01CE0107960E94ED0CC8010E941207AC
:100E7000D82E882309F465C0D8018D919C910097E4
:100E800009F45EC040E050E0BE01695F7F4F0E9400
:100E9000340C5C0197FD54C06CEF71E0CE010196FB
:100EA0000E94F60CA501BE016F5F7F4FF8018081A3
:100EB00091810E94340C01967C01CE0101960E9422
:100EC000E80CD801ED91FC9144815581E416F506BA
:100ED00040F16BEC72E0CE0101960E94F60CA50188
:100EE000BE016F5F7F4FF801808191810E94340CB9
:100EF0005C01CE0101960E94E80CD8016D917C91B5
:100F00009501A701CE0101960E940B0DBE016F5FF6
:100F10007F4FC4010E94AF0CCE0101960E94E80CE5
:100F200010C0208131812115310599F2D901AE0D12
:100F3000BF1D8C91803269F6BFEFEB1AFB0AC6CF5A
:100F4000D12CCE0107960E94E80C8D2D2C960FB661
:100F5000F894DEBF0FBECDBFDF91CF911F910F91EF
:100F6000FF90EF90DF90BF90AF909F908F9008958B
:100F700080E090E070E09B01082E02C03595279537
:100F80000A94E2F720FD05C001968830910599F793
:100F900080E0089560E00C94FF0AEF92FF921F93A7
:100FA000CF93DF93FC011FB7F894158A80E0062EDB
:100FB000000C770B21E030E0CBE0D0E04589A68D36
:100FC000B78D958D483008F054C07B0102C0F59470
:100FD000E7944A95E2F7E0FE09C0FC90A90101C040
:100FE000440F9A95EAF74F294C930AC04C91790126
:100FF00001C0EE0C9A95EAF79E2D909594239C9350
:10100000E38CF48CD7014C91D901028C02C0AA0F59
:10101000BB1F0A94E2F79A2F90959423D7019C93D3
:101020001FBFDE011197F1F7F894A4A1B5A14C916F
:1010300050E003A002C0559547950A94E2F740FF9F
:1010400008C0A901058802C0440F551F0A94E2F7A1
:10105000842BA38DB48D9C91A901028C02C0440FF6
:10106000551F0A94E2F7492B4C9395899F5F958B06
:10107000A5CF4C9121E030E001C0220F9A95EAF70C
:10108000242B2C931FBFE7E0F0E03197F1F7DF91BD
:10109000CF911F91FF90EF900895BF92CF92DF9272
:1010A000EF92FF920F931F93CF93DF93EC016B01AD
:1010B000BFB6F894E9A1FAA1208181E090E008A0F0
:1010C00002C0880F991F0A94E2F7809582238083DB
:1010D000BFBE7B01042F10E0C7018C199D0980174A
:1010E00091073CF4F70161917F01CE010E94CD0789
:1010F000F3CFF894E9A1FAA1208181E090E008A063
:1011000002C0880F991F0A94E2F7822B8083BFBE2A
:101110006AA570E080E090E0DF91CF911F910F9180
:10112000FF90EF90DF90CF90BF900C942804DC01EB
:101130005896ED91FC915997AF01409550954623F3
:10114000572391E0452B09F490E056962D913C9160
:1011500057972E273F276223732381E0672B09F4DB
:1011600080E089230895CF93DF93EC015F934F9341
:101170008DEC92E09F938F93660F771F660F771F1A
:101180008D819E81680F791F7F936F930E94221E2D
:1011900081E08A830F900F900F900F900F900F9027
:1011A000DF91CF910895CF93DF93EC015F934F933D
:1011B00082ED92E09F938F93660F771F660F771FE4
:1011C0008D819E81680F791F7F936F930E94221EED
:1011D00081E08A830F900F900F900F900F900F90E7
:1011E000DF91CF9108956115710579F0FB010190B0
:1011F0000020E9F73197AF01461B570BDC01ED9159
:10120000FC910280F381E02D099480E090E0089544
:10121000EF92FF920F931F93CF93DF93EC017B012B
:101220008A01888199810E94C00460E08881998147
:101230000E94E909B701888199810E94F30861E061
:10124000888199810E94E909B80188819981DF919B
:10125000CF911F910F91FF90EF900C94F308EF92B4
:10126000FF920F931F93CF93DF93CDB7DEB7AC9769
:101270000FB6F894DEBF0FBECDBF8C017A012FE010
:1012800030E040E050E0CE0187960E940B0D2FE049
:1012900030E040E050E0B701CE0181960E940B0D96
:1012A00040E150E060E270E0CE0141960E94F11D05
:1012B00040E150E060E270E0CE0101960E94F11D35
:1012C0006FA178A5CE0141960E94011E69A17AA165
:1012D000CE0101960E94011EAE014F5F5F4FBE011D
:1012E0006F5E7F4FC8010E940809CE0181960E945F
:1012F000E80CCE0187960E94E80CAC960FB6F894E5
:10130000DEBF0FBECDBFDF91CF911F910F91FF9038
:10131000EF900895CF93DF93EC0188819981009736
:1013200011F00E94811C198218821D821C821B826E
:101330001A82DF91CF9108950F931F93CF93DF937C
:10134000EC0188819981009729F02A813B81261739
:10135000370788F48B016F5F7F4F0E94191D00973C
:1013600061F0998388831B830A832C813D81232B21
:1013700011F4FC01108281E001C080E0DF91CF9187
:101380001F910F910895EF92FF920F931F93CF93A8
:10139000DF93EC017B018A01BA010E949C09811153
:1013A00004C0CE010E948A0907C01D830C83B701C7
:1013B000888199810E94011ECE01DF91CF911F91FA
:1013C0000F91FF90EF900895682F85EA93E00C94B9
:1013D000E600CF93DF93CDB7DEB728970FB6F8942A
:1013E000DEBF0FBECDBF1D8220E42E8334E13F83DC
:1013F00034E5388719822A8320E12B8320E52C836A
:10140000FC012781621710F06FEF620FFC0130853D
:1014100070E0FE01E60FF71F303121F4243011F4A3
:10142000618101C06581606828960FB6F894DEBFBF
:101430000FBECDBFDF91CF910C94B80480916B04A7
:1014400090916C048130910561F01CF4892B69F056
:101450000BC08230910561F0039731F420E731E051
:1014600009C029ED32E006C0089523E731E002C04B
:101470002DED32E0C9010895682F85EA93E00C94C0
:10148000E600CF93DF93EC018091660490916704AE
:1014900080589F4F0E94E4098091680490916904EC
:1014A0008C0F9D1F0E94E40985E490E00E94E409EE
:1014B00080916A048823C1F080916604909167044A
:1014C00080589F4F0E94E40920916804309169047C
:1014D000CE01820F931F0C970E94E40985E490E0EF
:1014E000DF91CF910C94E409DF91CF9108950F9390
:1014F0001F93CF93DF938C01C4E6D4E08A819B8154
:1015000080579F4F0E94E4098C819D81800F911F1D
:101510000E94E40985E490E0DF91CF911F910F9143
:101520000C94E4090F931F93CF93DF93C0E0D0E0B6
:1015300000E010E080917B0490917C04081719076B
:10154000C4F4E0917904F0917A04EC0FFD1F8281DC
:10155000882359F0838194810E94410AE0917904A3
:10156000F0917A04EC0FFD1F12820F5F1F4F25963A
:10157000E1CFDF91CF911F910F9108950F931F93AA
:10158000E0916404F0916504808D918D8095909533
:1015900089709927099711F50E94920A0E946204A6
:1015A00000917D0410917E0420917F04309180048D
:1015B000DC01CB01801B910BA20BB30B853C29E016
:1015C0009207A105B10580F00E94620460937D043A
:1015D00070937E0480937F049093800461E089E09F
:1015E0000E94A00380E008C0813D9740A105B1059D
:1015F000A8F381E0809381041F910F9108954F9289
:101600005F926F927F928F929F92AF92BF92DF9282
:10161000EF92FF920F931F93CF93DF93CDB7DEB777
:1016200029970FB6F894DEBF0FBECDBF8C01F62E02
:101630000E946204D80196968D909D90AD90BC90CA
:101640009997681979098A099B090E94C8204B015A
:101650005C01DFB620E030E84BEB54E40E94E71B6E
:1016600018163CF545E060E271E0C8010E944D08A3
:1016700049E067E171E0C8010E944D08F80184A5C6
:10168000882331F045E062E171E0C8010E944D0815
:10169000D8019D968C91882331F049E069E071E092
:1016A000C8010E944D0849E060E071E0C8010E9455
:1016B0004D08F80162A570E080E090E00E94CA2029
:1016C0002B013C019B01AC01C501B4010E94C32068
:1016D00087FF0AC0A5019401C301B2010E94441B07
:1016E0000E94B81B0E942804D80158968D919C91A5
:1016F000599757969C938E935697FF2079F02F2DEC
:1017000030E0AFEBB0E00E9475222FEF30E040E018
:1017100050E00E94FD2180E4F82EF20EF894D801EA
:101720005E96ED91FC915F97408181E090E09C0195
:101730005D960C905D9702C0220F331F0A94E2F76A
:10174000242B20835B96ED91FC915C9740819C015A
:101750005A960C905A9702C0220F331F0A94E2F750
:10176000242B20839196ED91FC9192972081909665
:101770000C9002C0880F991F0A94E2F7809582238B
:101780008083DFBE87E090E00197F1F7FE0131969C
:1017900089E0DF011D928A95E9F781E0898382E47F
:1017A0008A83FD827F0158014E01BAE08B0E911CA5
:1017B000F70161917F01C8010E94CD07D5018D938A
:1017C0005D01E814F904A1F7F80181818937C9F1B5
:1017D000F894D8019196ED91FC919297208181E047
:1017E00090E090960C90909702C0880F991F0A94F1
:1017F000E2F7822B8083DFBE13968D919C91149724
:1018000059969C938E9358970E946204F80166A3A0
:1018100077A380A791A729960FB6F894DEBF0FBED5
:10182000CDBFDF91CF911F910F91FF90EF90DF908F
:10183000BF90AF909F908F907F906F905F904F90F0
:1018400008957801F9E0EF0EF11C580185E1A80E2A
:10185000B11C60E0C8010E94CD07D7018D937D01C6
:10186000AA15BB05B1F7B4CFCF93DF93FC01248158
:1018700035814217530780F4FB01DC01CD91DC91E7
:1018800060817181CE01840F951F0E94081E009710
:1018900019F08C1B9D0B02C08FEF9FEFDF91CF9152
:1018A0000895EF92FF920F931F93CF93DF9300D091
:1018B000CDB7DEB78C0169831A82FC01E480F58024
:1018C000FFEFEF1AFF0AB7010E949C09882381F0FD
:1018D000F8012081318184819581BE016F5F7F4F46
:1018E000820F931F0E94011EF801F582E48281E0BD
:1018F0000F900F90DF91CF911F910F91FF90EF907C
:101900000895CF93DF93EC016115710559F0FB0148
:1019100001900020E9F73197AF01461B570B0E9459
:10192000C30902C00E948A09CE01DF91CF910895B8
:10193000CF93DF93EC01FB018617970761F060817D
:1019400071816115710529F0448155810E94C30997
:1019500002C00E948A09CE01DF91CF9108950F93B2
:101960001F93CF93DF938C01EB01FC018081918168
:101970000097B1F0688179816115710579F0428134
:1019800053812C813D814217530740F00E94011E74
:101990008C819D81F8019583848313C00E94811CF2
:1019A00088819981F801918380838A819B819383C7
:1019B00082838C819D8195838483198218821B8206
:1019C0001A821D821C82DF91CF911F910F91089581
:1019D000FC01808191810C94811CFC011182108298
:1019E00013821282158214820C94980CFC011182CD
:1019F000108213821282158214826115710551F0D2
:101A0000FB0101900020E9F73197AF01461B570B0E
:101A10000C94C3090895BF92CF92DF92EF92FF9288
:101A20000F931F93CF93DF937C016B018A01E90130
:101A30002417350720F4812F8901C42FD82F68ED92
:101A400072E0C7010E94F60CD60114968D919C910C
:101A5000159708171907D0F48C179D0708F4EC01A7
:101A6000D601ED91FC911197EC0FFD1FB080108213
:101A70004D915C91BA01600F711FC7010E94810CEA
:101A8000D601ED91FC91EC0FFD1FB082C701DF91F3
:101A9000CF911F910F91FF90EF90DF90CF90BF906B
:101AA00008950895CF92DF92EF92FF920F931F93C4
:101AB000CF93DF936C017A018B01C0E0D0E0CE15AB
:101AC000DF0589F0D8016D918D01D601ED91FC9172
:101AD0000190F081E02DC6010995892B11F47E015A
:101AE00002C02196ECCFC701DF91CF911F910F91DA
:101AF000FF90EF90DF90CF900895CF93DF93CDB715
:101B0000DEB7E3970FB6F894DEBF0FBECDBF789473
:101B100084B5826084BD84B5816084BD85B58260F2
:101B200085BD85B5816085BD80916E0081608093A3
:101B30006E0010928100809181008260809381000C
:101B4000809181008160809381008091800081601C
:101B5000809380008091B10084608093B100809177
:101B6000B00081608093B00080917A00846080939F
:101B70007A0080917A00826080937A0080917A0066
:101B8000816080937A0080917A00806880937A00E7
:101B90001092C10061E089E00E94EC0361E089E0FD
:101BA0000E94A0038091E5029091E602892B09F042
:101BB0006EC087E090E00E94EC1B6C01DC01129685
:101BC0001C9289E190E00E94EC1B8C01FC011382C5
:101BD000128283E391E091838083108A8FEF87875D
:101BE0001686118A87E283871486158612861186E7
:101BF00084E0828B82E0838B81E0848B80E1858B23
:101C000080E2868B80E4878B80E8808F40E050E024
:101C100063E0C8010E947E01D6010D931C93D80198
:101C2000ED91FC910480F581E02D20E042E060E13F
:101C3000C801099582E190E00E94EC1BF6019483B3
:101C4000838382E190E00E94EC1BD60116969C9360
:101C50008E93159780E090E020E231E0D601139654
:101C6000ED91FC911497E80FF91F20831596ED91E3
:101C7000FC911697E80FF91F208312963C9301966A
:101C80008231910559F7D092E602C092E502E091C7
:101C9000E502F091E602808191810E94C004E0910A
:101CA000E502F091E60260E0808191810E94E909FD
:101CB000E091E502F091E60280819181DC01ED91F5
:101CC000FC910084F185E02D6FEF0995AA24A3947F
:101CD000B12C57E0652E712C8E010F5F1F4F1092B3
:101CE00067041092660410926904109268041092BE
:101CF0006A0410926C0410926B04809164049091B9
:101D00006504009711F00E94811C8EE290E00E9411
:101D1000EC1B2EE2FC0111922A95E9F790936504E1
:101D2000809364046CE271E080E090E00E942804FB
:101D3000C0906404D0906504EFB6EDE9F0E06491E2
:101D4000C6010E94B807D6015A968C935A97E9E8C3
:101D5000F0E08491E82FF0E0EE0FFF1FEE58FF4F08
:101D6000859194915C969C938E935B97EBE9F0E060
:101D70006491C6010E94B807D6015D968C935D9769
:101D8000E7E8F0E08491E82FF0E0EE0FFF1FEE5857
:101D9000FF4F859194915F969C938E935E97EAE9AD
:101DA000F0E06491C6010E94B807F60180A3E6E85E
:101DB000F0E0E491F0E0EE0FFF1FEE58FF4F859149
:101DC0009491D60192969C938E939197ECE9F0E0D2
:101DD0006491C6010E94B807F60183A3E8E8F0E029
:101DE000E491F0E0EE0FFF1FE859FF4F85919491C9
:101DF000D60195969C938E93949761E08DE00E9416
:101E0000EC0361E08AE00E94EC0361E08BE00E9459
:101E1000EC0360E08CE00E94EC0361E08CE00E9447
:101E2000A003F894D6015E96ED91FC915F97208116
:101E3000C5015D960C905D9702C0880F991F0A94AA
:101E4000E2F7822B80835B96ED91FC915C97208179
:101E5000C5015A960C9002C0880F991F0A94E2F7A8
:101E6000822B8083EFBEC6010E94CA07C6010E9472
:101E7000CA07F6018181813429F1833719F1893745
:101E800009F147E751E06EE771E08091E50290913A
:101E9000E6020E94080968EB7BE080E090E00E9487
:101EA00028044DE851E06EE771E08091E5029091E1
:101EB000E6020E94080968EE73E080E090E00E946C
:101EC00028040DCF81E0D6019A968C937BE0872E73
:101ED000912C45E060E271E0C6010E944D08C3010B
:101EE0000197F1F7F894D6015E96ED91FC915F971A
:101EF0002081C5015D960C905D9702C0880F991FE7
:101F00000A94E2F7822B80835B96ED91FC915C97BB
:101F10002081C5015A960C905A9702C0880F991FCC
:101F20000A94E2F7822B80839196ED91FC9192972F
:101F30002081C50190960C9002C0880F991F0A94C9
:101F4000E2F7809582238083EFBEC3010197F1F70A
:101F50006FE3262E61E0362E2801F10161911F0109
:101F6000C6010E94CD07D2018D932D01B8E42B1636
:101F7000B1E03B0691F7F894D6019196ED91FC9172
:101F800092972081C50190960C90909702C0880F7F
:101F9000991F0A94E2F7822B8083EFBE8C819B9677
:101FA0008C9349E067E171E0C6010E944D0849E069
:101FB00060E071E0C6010E944D08C6010E94CA0798
:101FC000F6018181833779F0813469F0F1E08F1A6D
:101FD000910809F456CFD6019A968C919A978F5F03
:101FE0009A968C9376CFC12CE0916404F0916504AD
:101FF00083A5833009F440C0813009F0B8C085E082
:1020000090E090937C0480937B0489E190E00E94AF
:10201000EC1BFC0190937A048093790480E090E8B3
:1020200091838083128285E390E09483838380E0B0
:1020300090E496838583178284E390E0918780877C
:1020400080E090E193878287148683E390E096870F
:10205000858780E090E2908B8787118A82E390E009
:10206000938B828B80E092E0958B848B168A81E340
:1020700090E0908F878B7BC08CE090E090937C0405
:1020800080937B048CE390E00E94EC1BFC01909316
:102090007A048093790480E490E0918380831282B3
:1020A00080E390E09483838380E890E09683858347
:1020B000178281E390E09187808780E190E09387A9
:1020C0008287148682E390E09687858780E290E09D
:1020D000908B8787118A83E390E0938B828B80E0DB
:1020E00094E0958B848B168A84E390E0908F878BA5
:1020F00080E091E0928F818F138E85E390E0958F41
:10210000848F80E090E4978F868F10A286E390E022
:1021100092A381A380E090E894A383A315A287E310
:1021200090E097A386A380E090E191A780A712A6F4
:1021300088E390E094A783A780E090E296A785A724
:1021400017A689E390E091AB80AB80E098E093AB79
:1021500082AB14AA8AE390E096AB85AB80E092E074
:1021600090AF87AB11AE8BE390E093AF82AF68ED99
:1021700072E0CE018D960E94F60CE0916404F0911D
:10218000650483A5833031F0813039F08F3F39F415
:10219000F12C05C0FF24F39402C052E0F52EF0921A
:1021A000E4028091E5029091E602B1E0FB1661F055
:1021B000E2E0FE1691F04EE951E069EA71E00E941A
:1021C000080961EB71E011C048ED52E06EEB71E07F
:1021D0000E9408096EEC71E008C048ED52E068ED1D
:1021E00071E00E94080969EE71E0CE018D960E94AF
:1021F000810C60ED77E080E090E00E94280482E0AE
:1022000090E00E94EC1B7C01DC011D921C929093DB
:10221000E3028093E20280916404909165040E943D
:10222000CA07C7010E941207D82E882309F45FC489
:10223000E0916404F0916504808D918D8095909576
:1022400089709927099709F452C4D701AD90BC90C1
:10225000A114B10431F0C5010E94E80CC5010E942F
:10226000811C86E090E00E94EC1B5C0168ED72E04E
:102270000E94F60CF701B182A08282E390E00E94F6
:10228000E72142E3A42EB12CD7012D913C91882364
:1022900079F0A114B4E0BB0659F0682FC9010E947F
:1022A000510CFFEFAF1ABF0AC5010E94E721ECCF26
:1022B000B901C8010E94ED0C8D819E81892B59F0D6
:1022C000E981FA818081882331F0C7010E941207D9
:1022D00091E0D82ED926C8010E94E80CD11033C055
:1022E00069E372E0C8010E94F60C4EE454E0B801C4
:1022F000C7010E941C07D82EC8010E94E80CDD20EF
:1023000011F16FE372E0C8010E94F60C44E554E05D
:10231000B801C7010E941C07D82EC8010E94E80C12
:10232000DD2089F067E472E0C8010E94F60C4AE5FE
:1023300054E0B801C7010E941C07D82EC8010E94B2
:10234000E80CD11011C042E552E063E672E08091E2
:10235000E5029091E6020E94080968EE73E080E0D1
:1023600090E00E942804F9CF80915E0490915F0470
:10237000892BB9F0A0905A04B0905B046EEC71E028
:10238000C5010E94F81D892B51F069EE71E0C5016D
:102390000E94F81D892B29F432E0C32E02C0CC2400
:1023A000C3948091E402C81609F45AC060E089E041
:1023B0000E94A0034FE652E06EE771E08091E502D3
:1023C0009091E6020E94080960ED77E080E090E0DD
:1023D0000E9428046AE574E0C8010E94ED0C6EE7D3
:1023E00072E0CE0141960E94F60CA801BE016F5E1C
:1023F0007F4F8091E5029091E6020E942F09CE0165
:1024000041960E94E80CC8010E94E80C60ED77E05C
:1024100080E090E00E942804BE01635D7F4FC80108
:102420000E94ED0C6DE872E0CE0141960E94F60C20
:10243000A801BE016F5E7F4F8091E5029091E60298
:102440000E942F09CE0141960E94E80CC8010E940B
:10245000E80C60ED77E080E090E00E942804AACFCD
:10246000F701E080F180E114F10431F0C7010E942E
:10247000E80CC7010E94811C64E972E0CE0141961C
:102480000E94F60C64E574E0CE0141960E94881A21
:10249000BC01C8010E94ED0C6EE474E0CE0181968F
:1024A0000E94ED0CA801BE016F5D7F4F8091E50297
:1024B0009091E6020E942F09CE0181960E94E80CBD
:1024C000C8010E94E80CCE0141960E94E80C68E821
:1024D00073E180E090E00E942804E091B503F09160
:1024E000B60382E08083E091B103F091B2031082E1
:1024F000E091B303F091B4038FE380831092BD03A6
:10250000E091B903F091BA0386E08083E091B703CC
:10251000F091B803808180618083E091B703F091EE
:10252000B803808188608083E091B703F091B8039D
:10253000808180688083E091B703F091B803808147
:102540008F7D808300EB10E0C8010E94E4098BE7D7
:1025500090E00E94E4090F5F1F4F003C1105A1F7B6
:1025600048ED52E06AE972E08091E5029091E6025E
:102570000E940809C090E502D090E60284EA92E049
:102580009F938F9308EA12E01F930F93D60114963E
:102590008C9114978F9313968C918F930E94221E87
:1025A000FF24F394F601F28240916804509169048B
:1025B00060E070E08091E5029091E6020E94D3080D
:1025C000C090E502D090E6028CEA92E09F938F9350
:1025D0001F930F93D60113968D919C911497049697
:1025E0009F938F930E94221EF601F282409166040F
:1025F0005091670461E070E08091E5029091E602FD
:102600000E94D308C090E502D090E60280EB92E0F1
:102610009F938F931F930F93D60113968D919C9147
:10262000149708969F938F930E94221EF601F282C0
:102630000FB6F894DEBF0FBECDBF80916A04811142
:1026400003C043E751E002C040E751E062E070E0C0
:102650008091E5029091E6020E94B3080091E502A4
:102660001091E60284EB92E09F938F9388EA92E0C8
:102670009F938F93D80113968D919C9114970C96EC
:102680009F938F930E94221E81E0F80182830E9413
:102690001E0AAC0163E070E08091E5029091E602D1
:1026A0000E94B30868EE73E080E090E00E94280486
:1026B000CE018D960E94E80C0F900F900F900F9016
:1026C0000F900F9084EF482E55245394612C712C59
:1026D0009FE0292E312C2EE7822E912C0091E502CD
:1026E0001091E602D80112968C911297882321F15D
:1026F0008D919C910E94C00460E0F80180819181DD
:102700000E94E909D80113966D917C9114978D91DF
:102710009C910E94F30861E0F801808191810E9400
:10272000E909D80115966D917C9116978D919C9130
:102730000E94F308F80112822091E402809164045F
:1027400090916504223059F40E94CA078091810457
:102750008111C6C30E94BE0A8111C2C353C36091D6
:102760006D040E94FF0A80918104811189C40E9436
:10277000BE0A811185C400E010E0C12CD12CFF24D9
:10278000F39480917B0490917C04C816D9063CF5A3
:10279000A0907904B0907A04A00EB11ED5011296D3
:1027A0002C91129780916404909165046D917C91B5
:1027B000211105C00E94970881119EC50AC0FC0125
:1027C000808D918D8095909568237923672B09F4EE
:1027D000AEC5FFEFCF1ADF0A0B5F1F4FD2CF80913C
:1027E0006B0490916C04892B09F478C1E091640426
:1027F000F09165046781062F10E00E36110514F57F
:10280000809166049091670480559F4F0E94E4096F
:1028100081E090E00E94E409B801110F880B990B48
:102820000E94CA2020917204309173044091740474
:10283000509175040E9429210E94B11BC401861B7E
:10284000970B25C0013911053CF1809166049091E8
:10285000670480559F4F0E94E40981E090E00E9448
:10286000E409B80161597109072E000C880B990B16
:102870000E94CA2020917204309173044091740424
:10288000509175040E9429210E94B11BCB010E9426
:10289000E4091092770417C080917704811113C066
:1028A000809166049091670480559F4F0E94E409CF
:1028B00081E090E00E94E40980E090E00E94E40959
:1028C00081E080937704E0916404F0916504608571
:1028D000062F10E00E36110504F5809166049091E4
:1028E000670480559F4F0E94E4098BE090E00E94AE
:1028F000E409B801110F880B990B0E94CA2020919E
:1029000072043091730440917404509175040E94D4
:1029100029210E94B11BCB0127C0013911054CF1BF
:10292000809166049091670480559F4F0E94E4094E
:102930008BE090E00E94E409B80161597109072E0B
:10294000000C880B990B0E94CA20209172043091D0
:10295000730440917404509175040E9429210E94CF
:10296000B11BC401861B970B0E94E40910927804E6
:1029700017C080917804811113C0809166049091F2
:10298000670480559F4F0E94E4098BE090E00E940D
:10299000E4098FE790E00E94E40981E080937804E5
:1029A000E0916404F09165046581062F10E00E3615
:1029B000110514F5809166049091670480529F4F31
:1029C0000E94E409B801110F880B990B0E94CA20DC
:1029D00020916E0430916F04409170045091710405
:1029E0000E9429210E94B81B6B017C01CB01992711
:1029F0000E943C0A8D2D27C00139110554F18091A8
:102A000066049091670480529F4F0E94E409B801C8
:102A100061597109072E000C880B990B0E94CA207E
:102A200020916E0430916F044091700450917104B4
:102A30000E9429210E94B81B8B01105EC8019927B2
:102A40000E943C0A812F90E00E943C0A109276047A
:102A500045C080917604811141C0809166049091B7
:102A6000670480529F4F0E94E40980E090E00E943A
:102A7000E40980E290E00E94E40981E0809376041A
:102A80002DC0E0917904F0917A04EC0DFD1D4423F2
:102A900009F4D3C18281882369F0838194814BAB8F
:102AA0000E94410AE0917904F0917A04EC0DFD1D39
:102AB00012824BA90F5F1F4F85E0C80ED11C809179
:102AC0007B0490917C0408171907DCF280916B0459
:102AD00090916C04181619060CF4D0C16AE070E0ED
:102AE00080E090E00E9428040E944F01F7CD85EA23
:102AF00093E00E942D01E091B703F091B80380812B
:102B00008F7E8083E091B703F091B8038081877F47
:102B10008083E091B703F091B80380818F77808341
:102B2000E091B703F091B80380818F7D808380911D
:102B3000BF038093BE03E091B503F091B60382E03A
:102B40008083E091B103F091B2031082E091B3036E
:102B5000F091B40380E180831092BD03E091B9034A
:102B6000F091BA0386E08083E091B703F091B80357
:102B7000808180618083E091B703F091B803808108
:102B800088608083E091B703F091B803808180680A
:102B90008083E091B703F091B80380818F7D8083BB
:102BA00085EA93E00E942D0148ED52E068EB72E067
:102BB0008091E5029091E6020E94080985EA93E07F
:102BC0000E94AF00181619063CF065E070E080E046
:102BD00090E00E942804F2CFE091E502F091E60235
:102BE000808191810E94C00485EA93E00E94AF0039
:102BF000181619060CF0F5C060E089E00E94A003E9
:102C000060EF71E0CE0187960E94F60C68ED72E0ED
:102C1000CE0181960E94F60C7E01B1E1EB0EF11C13
:102C200085EA93E00E94AF0018161906CCF7C70199
:102C30000E94BA1A66EF71E0C8010E94F60C40E0EB
:102C400050E0B801C7010E94340C6C01C8010E9419
:102C5000E80CD7FC14C02D893E89A6014D5F5F4F5B
:102C6000B701C8010E940B0DB801CE0181960E94E8
:102C7000AF0CC8010E94E80CDD24D39401C0D12C14
:102C8000C7010E94E80CDD2059F285EA93E00E941A
:102C9000AF0018161906C4F4C8010E94BA1ABE0182
:102CA0006F5D7F4FC7010E94ED0CB801C7010E9404
:102CB000881ABC01CE0181960E94980CC7010E941F
:102CC000E80CC8010E94E80C6AEF71E0C8010E949C
:102CD000F60C40E050E0B801CE0181960E94340C21
:102CE0006C01C8010E94E80CD7FCCFCF960140E0F0
:102CF00050E0BE016F5D7F4FC8010E940B0DB8010F
:102D0000CE0181960E94AF0CC8010E94E80C8DA1F3
:102D10009EA1892B19F4C12CD12C1CC0BE016F5D62
:102D20007F4FC8010E94ED0CB8018091E2029091A2
:102D3000E3020E94BE196C01C8010E94E80C8DA13B
:102D40009EA1C816D90631F46EEF71E0CE018796C8
:102D50000E94810C61E089E00E94A00340E150E004
:102D600060E270E0C7010E94F11D40E150E060E2C6
:102D700070E0C8010E94F11D88A58F938FA18F93E9
:102D800083E092E09F938F93FF92EF920E94221E26
:102D9000DF92CF928EA18F938DA18F938EE092E0E0
:102DA0009F938F931F930F930E94221EA801B70138
:102DB0008091E5029091E6020E94080960E177E2C5
:102DC00080E090E00E942804CE0181960E94E80CE9
:102DD000CE0187960E94E80C0FB6F894DEBF0FBEB6
:102DE000CDBF40E252E06CE272E08091E50290914A
:102DF000E6020E94080968EE73E080E090E00E941D
:102E00002804F9CF009164041091650460E170E03A
:102E1000C8010E949708811108C060E470E0C801F1
:102E20000E949708882309F4EFC1C12CD12C00E03F
:102E300010E040E0FF24F39442CEA0916404B091EE
:102E4000650458962D913C91599720953095808135
:102E5000918182239323892B09F42CCE82818111C5
:102E60000BC0F28240916A0483819481442311F063
:102E700024FD0C970E94770A41E01CCE80916604E5
:102E80009091670480559F4F0E94E40980916B04E4
:102E900090916C048130910589F0029709F01ECE63
:102EA0008BE090E00E94E409E0916404F0916504F5
:102EB000608585EA93E00E94E60010CE81E090E014
:102EC0000E94E409E0916404F091650490852FE785
:102ED00030E0D901A91BB109CD010E94E409FECD62
:102EE0000E946204A30192010E94532220FD02C0AD
:102EF00061E001C060E089E00E94A00300916404E9
:102F00001091650461E070E0C8010E949708882371
:102F100039F068E070E0C8010E949708811131C162
:102F2000D8015896CD90DC905997C094D094D1FE9A
:102F300020C060E470E0C8010E949708882331F047
:102F4000809168049091690401970CC060E170E081
:102F5000C8010E949708882361F0809168049091CD
:102F6000690401969093690480936804FF24F394A4
:102F700001C0F12CD5FE33C060E470E0C8010E94AE
:102F80009708A0906604B0906704882321F0F1E0D0
:102F9000AF1AB1080AC060E170E0C8010E9497084A
:102FA000882349F02FEFA21AB20AB0926704A092C8
:102FB0006604FF24F394809166049091670497FF60
:102FC00004C0109267041092660480916604909188
:102FD0006704409724F03092670420926604D4FE80
:102FE00016C060E470E0C8010E949708882319F0B9
:102FF00010926A040AC060E170E0C8010E9497085C
:10300000882329F081E080936A04FF24F394D6FE9C
:10301000ADC060E470E0C8010E949708C0906B04E6
:10302000D0906C04882321F041E0C41AD1080AC072
:1030300060E170E0C8010E949708882349F05FEFC3
:10304000C51AD50AD0926C04C0926B04FF24F39485
:1030500080916B0490916C0497FF06C082E090E031
:1030600090936C0480936B0480916B0490916C043A
:1030700003970CF47BC010926C0410926B0476C022
:103080000E946204A30192010E94532220FDFFC00E
:1030900061E089E00E94A00300916404109165043E
:1030A00061E070E0C8010E949708811162C060E091
:1030B00070E1C8010E949708882309F4EAC0E3E0A0
:1030C000F0E0F0936C04E0936B04FF24F39460E170
:1030D00070E0C8010E949708882309F4E8C081E0E5
:1030E00080936A04FF24F39460E074E0C8010E94B6
:1030F0009708882309F4E6C08091680490916904D8
:1031000001969093690480936804FF24F39460E02F
:1031100078E0C8010E949708C0906604D0906704C8
:10312000882309F4DDC0FFEFCF1ADF0AD0926704CD
:10313000C0926604FF24F394809166049091670422
:1031400097FF04C010926704109266048091660491
:1031500090916704409724F03092670420926604AF
:1031600064E670E080E090E00E942804F11017C04F
:10317000B5CC68E070E0C8010E949708882309F484
:1031800096CF1092810410927D0410927E041092CA
:103190007F041092800461E089E00E94A0034091C6
:1031A00068045091690460E070E08091E5029091BC
:1031B000E6020E94D308409166045091670461E0E2
:1031C00070E08091E5029091E6020E94D308809120
:1031D0006A04811103C043E751E002C040E751E0B7
:1031E00062E070E08091E5029091E6020E94B308EF
:1031F0000E941E0AAC0163E070E08091E5029091AC
:10320000E6020E94B3086ACCF801808D918D80950A
:10321000909580759927892B59F100E010E0C12C19
:10322000D12C80917B0490917C04C816D9060CF0B7
:103230004DCCE0917904F0917A04E00FF11FA09158
:103240006404B091650458962D913C91599720954E
:1032500030958081918182239323892B19F4828177
:10326000811109C09FEFC91AD90A0B5F1F4FD9CF2F
:103270000E94920A2BCC838194810E94410AE091A2
:103280007904F0917A04E00FF11F1282EBCF60E035
:1032900000CF60E070E4C8010E949708882329F0FD
:1032A00010926C0410926B0410CFF12C10CF60E4DC
:1032B00070E0C8010E949708882309F415CF109286
:1032C0006A0410CF60E071E0C8010E94970888236B
:1032D00009F41DCF8091680490916904019711CF82
:1032E00060E072E0C8010E949708882309F424CFA7
:1032F00021E0C21AD1081ACFD5011296FC9212977A
:1033000013968D919C9114970E94770A80916A047C
:10331000882309F45ECAE0917904F0917A04E00F01
:10332000F11F838194810C970E94770A52CAF5019C
:103330001282838194810E94410A4BCAEF92FF92CC
:103340000F931F93CF93DF931F92CDB7DEB77C010E
:10335000FC0100811181C80169830E94E721698114
:10336000681719F0C8010E94EF21C7010F90DF9183
:10337000CF911F910F91FF90EF900895AF92BF9260
:10338000CF92DF92EF92FF920F931F93CF93DF9331
:1033900000D0CDB7DEB75B0180E390E09A838983EC
:1033A00060E0CE0101960E949E19D50114968D9180
:1033B0009C91159701978E3C934008F044C0C12C16
:1033C000D12C82E3E82EF12C00E010E0D501149618
:1033D0008D919C911597C816D90600F5D501ED91F0
:1033E000FC91309729F41092E702E7EEF2E002C078
:1033F000EC0DFD1D608187EF860F823058F0FA8258
:10340000E982CE0101960E949E19BFEFEB1AFB0ADA
:103410000F5F1F4FEFEFCE1ADE0AD8CF011511054F
:1034200081F0FA82E98260E0CE0101960E949E1945
:1034300081E390E09A83898360E0CE0101960E9447
:103440009E19C80102C08FEF9FEF0F900F90DF9180
:10345000CF911F910F91FF90EF90DF90CF90BF9091
:10346000AF9008958AE594E00E94E80C84E594E02A
:103470000E94E80C8EE494E00E94E80C80917904AC
:1034800090917A04009749F020917B0430917C045C
:103490001216130614F40C94811C08950F931F93B5
:1034A0000E9462046093AD037093AE038093AF03F8
:1034B0009093B003E091A503F091A6030680F781F5
:1034C000E02D85EA93E0099597FF1FC00E946204F2
:1034D0000091AD031091AE032091AF033091B00382
:1034E000DC01CB01801B910BA20BB30B0091A90354
:1034F0001091AA032091AB033091AC038017910780
:10350000A207B307B8F28FEF9FEF1F910F910895B5
:10351000EF92FF920F931F93CF93DF93EC01FB0188
:1035200084819581E080F1800C811D81E114F1049A
:10353000B1F00097B9F0080F191FB801CE010E9431
:103540009C09882361F0288139818C819D81B70194
:10355000820F931F0E94011E1D830C8303C0CE01A6
:103560000E948A09CE01DF91CF911F910F91FF90A8
:10357000EF900895CF93DF93EC0168ED72E00E9425
:10358000F60C0E944E1A97FD05C0682FCE010E94CE
:10359000510CF7CFCE01DF91CF910895E5EAF3E02A
:1035A0001382128288EE93E0A0E0B0E084839583DA
:1035B000A683B7832CE431E03183208325EC30E00F
:1035C0003587248724EC30E03787268720EC30E0ED
:1035D000318B208B21EC30E0338B228B22EC30E0DE
:1035E000358B248B26EC30E0378B268B118E128E98
:1035F000138E148EE2E4F4E01382128284839583A6
:10360000A683B7838CE591E091838083E4E6F4E0C0
:1036100013821282158214821682108617821186F6
:1036200086E092EFA4E9B2E482879387A487B58706
:103630008BE19EE9A2E9BFE386879787A08BB18BD8
:10364000128A138A148A8FEF9FEF908F878B118EC7
:10365000128E138E148E158E68ED72E08EE494E057
:103660000E94F60C68ED72E084E594E00E94F60C8E
:1036700068ED72E08AE594E00C94F60CEE0FFF1F03
:103680000590F491E02D09945058BB27AA270E9479
:103690005C1B0C94AD210E949F2138F00E94A62152
:1036A00020F039F49F3F19F426F40C949C210EF479
:1036B000E095E7FB0C949621E92F0E94BE2158F378
:1036C000BA17620773078407950720F079F4A6F507
:1036D0000C94E0210EF4E0950B2EBA2FA02D0B01D7
:1036E000B90190010C01CA01A0011124FF27591B47
:1036F00099F0593F50F4503E68F11A16F040A22F4D
:10370000232F342F4427585FF3CF469537952795BD
:10371000A795F0405395C9F77EF41F16BA0B620BBC
:10372000730B840BBAF09150A1F0FF0FBB1F661F03
:10373000771F881FC2F70EC0BA0F621F731F841F46
:1037400048F4879577956795B795F7959E3F08F06C
:10375000B0CF9395880F08F09927EE0F979587952E
:1037600008950E94B81B6894B1110C94E12108954A
:103770000E94C62188F09F5798F0B92F9927B7511A
:10378000B0F0E1F0660F771F881F991F1AF0BA9505
:10379000C9F714C0B13091F00E94E021B1E0089562
:1037A0000C94E021672F782F8827B85F39F0B93F54
:1037B000CCF3869577956795B395D9F73EF49095B8
:1037C0008095709561957F4F8F4F9F4F08950E9410
:1037D000052108F48FEF0895CF93DF938230910590
:1037E00010F482E090E0E0918404F091850420E000
:1037F00030E0C0E0D0E0309711F1408151814817AE
:103800005907C0F04817590761F4828193812097C6
:1038100019F09B838A832BC0909385048093840442
:1038200026C02115310519F04217530718F49A01E3
:10383000BE01DF01EF010280F381E02DDCCF211515
:10384000310509F1281B390B2430310590F412960B
:103850008D919C9113976115710521F0FB01938364
:10386000828304C09093850480938404FD01329682
:1038700044C0FD01E20FF31F81939193225031095F
:103880002D933C933AC02091820430918304232BE2
:1038900041F4209127013091280130938304209333
:1038A000820420912501309126012115310541F432
:1038B0002DB73EB74091290150912A01241B350BA9
:1038C000E0918204F0918304E217F307A0F42E1B29
:1038D0003F0B2817390778F0AC014E5F5F4F241774
:1038E000350748F04E0F5F1F5093830440938204C6
:1038F0008193919302C0E0E0F0E0CF01DF91CF919E
:1039000008950F931F93CF93DF93009709F48CC012
:10391000FC01329713821282009184041091850475
:103920000115110581F420813181820F931F2091AF
:103930008204309183042817390779F5F0938304C2
:10394000E093820471C0D80140E050E0AE17BF0799
:1039500050F412962D913C911397AD01211531052C
:1039600009F1D901F3CF9D01DA013383228360810C
:103970007181860F971F8217930769F4EC012881E4
:103980003981260F371F2E5F3F4F318320838A8175
:103990009B8193838283452B29F4F0938504E093E4
:1039A000840442C01396FC93EE931297ED01499163
:1039B00059919E01240F351FE217F30771F480819E
:1039C0009181840F951F029611969C938E9382810C
:1039D000938113969C938E931297E0E0F0E0D801C8
:1039E00012968D919C911397009719F0F8018C0114
:1039F000F6CF8D919C9198012E5F3F4F820F931FC0
:103A000020918204309183042817390769F4309794
:103A100029F4109285041092840402C01382128249
:103A20001093830400938204DF91CF911F910F9133
:103A30000895A0E0B0E0EFE1FDE10C942022EC015C
:103A4000009721F4CB010E94EC1BB8C0FC01E60FEB
:103A5000F71F9C0122503109E217F30708F4ACC0AC
:103A6000D9010D911C91119706171707B0F0053079
:103A7000110508F49FC0C80104978617970708F43A
:103A800099C002501109061B170B019311936D93F6
:103A90007C93CF010E94811C8DC05B01A01AB10AEA
:103AA0004C01800E911EA0918404B091850440E0E9
:103AB00050E0E12CF12C109709F44AC0A815B90583
:103AC000D1F56D907C901197630182E0C80ED11CF6
:103AD000CA14DB0480F1A3014A195B096A0182E080
:103AE000C80ED11C1296BC9012971396AC91B5E0FB
:103AF000CB16D10440F0B282A38351834083D90115
:103B00006D937C930AC00E5F1F4FC301800F911FFE
:103B1000F90191838083EB2DFA2FE114F10431F048
:103B2000D7011396FC93EE93129744C0F09385044B
:103B3000E09384043FC08D919C91119748175907D9
:103B400008F4AC017D0112960D90BC91A02DB3CF6D
:103B5000809182049091830488159905E1F44617B9
:103B60005707C8F48091250190912601009741F4F0
:103B70008DB79EB74091290150912A01841B950B66
:103B8000E817F907C8F4F0938304E0938204F9017D
:103B9000718360830FC0CB010E94EC1B7C010097F6
:103BA00059F0A801BE010E94E81DCE010E94811CAF
:103BB000C70104C0CE0102C080E090E0CDB7DEB7FF
:103BC000EEE00C943C2281E090E0F8940C94842286
:103BD000FB01DC0102C001900D9241505040D8F72A
:103BE0000895DC0101C06D9341505040E0F7089505
:103BF000FB01DC018D91019080190110D9F3990B23
:103C00000895FB01DC0101900D920020E1F7089579
:103C1000FB0151915523A9F0BF01DC014D914517DE
:103C20004111E1F759F4CD010190002049F04D9187
:103C300040154111C9F3FB014111EFCF81E090E044
:103C400001970895AEE0B0E0E8E2FEE10C942A228C
:103C50000D891E8986E08C831A8309838FEF9FE785
:103C60009E838D83AE01475E5F4F6F89788DCE0155
:103C700001960E94451E2F813885F801E20FF31F3F
:103C800010822E96E4E00C944622ACE0B0E0EBE427
:103C9000FEE10C941C227C016B018A01FC0117825D
:103CA0001682838181FFBDC1CE0101964C01F701CF
:103CB0009381F60193FD859193FF81916F01882394
:103CC00009F4ABC1853239F493FD859193FF81915D
:103CD0006F01853229F4B70190E00E942D20E7CFD3
:103CE000512C312C20E02032A0F48B3269F030F4DA
:103CF000803259F0833269F420612CC08D3239F062
:103D0000803339F4216026C02260246023C02860FB
:103D100021C027FD27C030ED380F3A3078F426FF58
:103D200006C0FAE05F9E300D1124532E13C08AE0C6
:103D3000389E300D1124332E20620CC08E3221F4B7
:103D400026FD6BC1206406C08C3611F4206802C0C9
:103D5000883641F4F60193FD859193FF81916F01BF
:103D60008111C1CF982F9F7D9554933028F40C5F1B
:103D70001F4FFFE3F9830DC0833631F0833771F0B5
:103D8000833509F05BC022C0F801808189830E5F12
:103D90001F4F44244394512C540115C03801F2E0C4
:103DA0006F0E711CF801A080B18026FF03C0652D45
:103DB00070E002C06FEF7FEFC5012C870E942220C8
:103DC0002C0183012C852F77222E17C03801F2E0B9
:103DD0006F0E711CF801A080B18026FF03C0652D15
:103DE00070E002C06FEF7FEFC5012C870E941720A3
:103DF0002C012C852068222E830123FC1BC0832DDF
:103E000090E048165906B0F4B70180E290E00E94B5
:103E10002D203A94F4CFF50127FC859127FE81915E
:103E20005F01B70190E00E942D2031103A94F1E03B
:103E30004F1A51084114510471F7E5C0843611F04E
:103E4000893639F5F80127FF07C0608171818281C9
:103E500093810C5F1F4F08C060817181072E000C99
:103E6000880B990B0E5F1F4F2F76722E97FF09C09C
:103E700090958095709561957F4F8F4F9F4F2068EB
:103E8000722E2AE030E0A4010E946520A82EA81816
:103E900044C0853729F42F7EB22E2AE030E025C0B9
:103EA000F22FF97FBF2E8F36C1F018F4883579F0E4
:103EB000B4C0803719F0883721F0AFC02F2F2061B0
:103EC000B22EB4FE0DC08B2D8460B82E09C024FF25
:103ED0000AC09F2F9660B92E06C028E030E005C0CA
:103EE00020E130E002C020E132E0F801B7FE07C077
:103EF00060817181828193810C5F1F4F06C0608158
:103F0000718180E090E00E5F1F4FA4010E94652048
:103F1000A82EA818FB2DFF777F2E76FE0BC0372D1D
:103F20003E7FA51450F474FE0AC072FC08C0372D01
:103F30003E7E05C0BA2C372D03C0BA2C01C0B52C6B
:103F400034FF0DC0FE01EA0DF11D8081803311F4B4
:103F5000397E09C032FF06C0B394B39404C0832FE6
:103F6000867809F0B39433FD13C030FF06C05A2C95
:103F7000B31418F4530C5B18B32CB31468F4B701E2
:103F800080E290E03C870E942D20B3943C85F5CFE1
:103F9000B31410F43B1801C0312C34FF12C0B70128
:103FA00080E390E03C870E942D203C8532FF17C0C3
:103FB00031FD03C088E790E002C088E590E0B701DA
:103FC0000CC0832F867859F031FF02C08BE201C00C
:103FD00080E237FD8DE2B70190E00E942D20A5140C
:103FE00038F4B70180E390E00E942D205A94F7CF77
:103FF000AA94F401EA0DF11D8081B70190E00E94BE
:104000002D20A110F5CF332009F451CEB70180E265
:1040100090E00E942D203A94F6CFF7018681978197
:1040200002C08FEF9FEF2C96E2E10C943822FC0146
:104030000590615070400110D8F7809590958E0FD3
:104040009F1F0895FC016150704001900110D8F746
:10405000809590958E0F9F1F08950F931F93CF9378
:10406000DF93FB01238121FD03C08FEF9FEF28C069
:1040700022FF16C04681578124813581421753079C
:1040800044F4A081B1819D012F5F3F4F3183208394
:104090008C93268137812F5F3F4F3783268310C053
:1040A000EB01092F182F0084F185E02D0995892B4C
:1040B000E1F68E819F8101969F838E83812F902FC1
:1040C000DF91CF911F910F910895FA01AA2728300F
:1040D00051F1203181F1E8946F936E7F6E5F7F4FD5
:1040E0008F4F9F4FAF4FB1E03ED0B4E03CD0670F51
:1040F000781F891F9A1FA11D680F791F8A1F911DA4
:10410000A11D6A0F711D811D911DA11D20D009F4F3
:1041100068943F912AE0269F11243019305D319335
:10412000DEF6CF010895462F4770405D4193B3E01E
:104130000FD0C9F7F6CF462F4F70405D4A3318F0C5
:10414000495D31FD4052419302D0A9F7EACFB4E076
:10415000A6959795879577956795BA95C9F700972E
:104160006105710508959B01AC010A2E06945795CF
:10417000479537952795BA95C9F7620F731F841F26
:10418000951FA01D08950E94052108F481E008955F
:10419000E89409C097FB3EF49095809570956195E1
:1041A0007F4F8F4F9F4F9923A9F0F92F96E9BB2797
:1041B0009395F695879577956795B795F111F8CF13
:1041C000FAF4BB0F11F460FF1BC06F5F7F4F8F4F7E
:1041D0009F4F16C0882311F096E911C0772321F074
:1041E0009EE8872F762F05C0662371F096E8862F0C
:1041F00070E060E02AF09A95660F771F881FDAF763
:10420000880F9695879597F90895990F0008550F8F
:10421000AA0BE0E8FEEF16161706E807F907C0F04C
:1042200012161306E407F50798F0621B730B840B54
:10423000950B39F40A2661F0232B242B252B21F42E
:1042400008950A2609F4A140A6958FEF811D811DCE
:1042500008950E943C210C94AD210E949F2138F0CA
:104260000E94A62120F0952311F00C9496210C9425
:104270009C2111240C94E1210E94BE2170F3959F92
:10428000C1F3950F50E0551F629FF001729FBB274D
:10429000F00DB11D639FAA27F00DB11DAA1F649FE9
:1042A0006627B00DA11D661F829F2227B00DA11D9C
:1042B000621F739FB00DA11D621F839FA00D611D22
:1042C000221F749F3327A00D611D231F849F600D43
:1042D000211D822F762F6A2F11249F5750409AF06C
:1042E000F1F088234AF0EE0FFF1FBB1F661F771FF8
:1042F000881F91505040A9F79E3F510580F00C94C3
:1043000096210C94E1215F3FE4F3983ED4F3869527
:1043100077956795B795F795E7959F5FC1F7FE2B62
:10432000880F911D9695879597F9089597F99F673E
:1043300080E870E060E008959FEF80EC089500242D
:104340000A941616170618060906089500240A94FA
:1043500012161306140605060895092E0394000C80
:1043600011F4882352F0BB0F40F4BF2B11F460FF0F
:1043700004C06F5F7F4F8F4F9F4F089557FD905838
:10438000440F551F59F05F3F71F04795880F97FB19
:10439000991F61F09F3F79F08795089512161306D3
:1043A0001406551FF2CF4695F1DF08C01616170602
:1043B0001806991FF1CF8695710561050894089537
:1043C000E894BB2766277727CB0197F90895F999D9
:1043D000FECF92BD81BDF89A992780B50895262F0A
:1043E000F999FECF1FBA92BD81BD20BD0FB6F894DA
:1043F000FA9AF99A0FBE01960895052E97FB1EF4BE
:1044000000940E94142257FD07D00E94532207FCFB
:1044100003D04EF40C94142250954095309521957C
:104420003F4F4F4F5F4F08959095809570956195E0
:104430007F4F8F4F9F4F08952F923F924F925F92E1
:104440006F927F928F929F92AF92BF92CF92DF92A4
:10445000EF92FF920F931F93CF93DF93CDB7DEB709
:10446000CA1BDB0B0FB6F894DEBF0FBECDBF09949D
:104470002A88398848885F846E847D848C849B84F4
:10448000AA84B984C884DF80EE80FD800C811B8102
:10449000AA81B981CE0FD11D0FB6F894DEBF0FBE31
:1044A000CDBFED010895A1E21A2EAA1BBB1BFD0191
:1044B0000DC0AA1FBB1FEE1FFF1FA217B307E40703
:1044C000F50720F0A21BB30BE40BF50B661F771F5B
:1044D000881F991F1A9469F760957095809590953B
:1044E0009B01AC01BD01CF010895A29FB001B39F14
:1044F000C001A39F700D811D1124911DB29F700DED
:10450000811D1124911D089510E0C2E6D0E004C081
:10451000FE010E943E1B2196C336D107C9F7F894CD
:02452000FFCFCB
:10452200014300005A5A5A5A5A014F00FFFF030032
:104532000000014D000001014400010300000000E1
:104542000143000100000086048000010000000019
:104552000000009201520D4B057E012C030B03015A
:1045620045005A5A5A5A5A5A00000000E600520DA3
:10457200AF008D00A1002D01000000002D02FD0101
:10458200F501E101D201D101000000004603520D04
:104592004F4E004F464600666F756E642E00436FA5
:1045A2006E74726F6C6C6572206E6F7400666F75DC
:1045B2006E642E205265747279696E672E00636F85
:1045C2006E74726F6C6C657200556E6B6E6F776E87
:1045D20000556E6B6E6F776E204374726C0044757B
:1045E200616C53686F636B20466F756E640044752F
:1045F200616C53686F636B004775697461724865DB
:10460200726F20466F756E6400477569746172003F
:1046120046616C7365003A235B005D233A00547275
:10462200756500454550524F4D3A2025730052653D
:104632003A25303030642057723A253030306400E9
:1046420052657374617274206E6F770055706C6F6F
:10465200616420446F6E652E004F776E6572005361
:1046620065747570567300436F6E74726F6C6C650F
:104672007200696E76616C69642E2045786974698E
:104682006E67004261736963207365747570006DB3
:1046920061746368696E672073657475700045782C
:1046A200706563746564206374726C3A00466F755A
:1046B2006E643A005665723A2000496E697420446D
:1046C2006F6E65005453500025732000434820004C
:1046D2004F4354004546460057616974696E67202E
:1046E200666F722073657269616C003B00252D3420
:1046F2007300253032642020004D4F44004558504D
:024702000000B5
:107E0000112484B714BE81FFF0D085E080938100F7
:107E100082E08093C00088E18093C10086E0809377
:107E2000C20080E18093C4008EE0C9D0259A86E02C
:107E300020E33CEF91E0309385002093840096BBD3
:107E4000B09BFECF1D9AA8958150A9F7CC24DD24C4
:107E500088248394B5E0AB2EA1E19A2EF3E0BF2EE7
:107E6000A2D0813461F49FD0082FAFD0023811F036
:107E7000013811F484E001C083E08DD089C08234E0
:107E800011F484E103C0853419F485E0A6D080C0E4
:107E9000853579F488D0E82EFF2485D0082F10E0AE
:107EA000102F00270E291F29000F111F8ED06801E7
:107EB0006FC0863521F484E090D080E0DECF843638
:107EC00009F040C070D06FD0082F6DD080E0C81688
:107ED00080E7D80618F4F601B7BEE895C0E0D1E017
:107EE00062D089930C17E1F7F0E0CF16F0E7DF06D8
:107EF00018F0F601B7BEE89568D007B600FCFDCFD4
:107F0000A601A0E0B1E02C9130E011968C91119780
:107F100090E0982F8827822B932B1296FA010C0160
:107F200087BEE89511244E5F5F4FF1E0A038BF0790
:107F300051F7F601A7BEE89507B600FCFDCF97BE46
:107F4000E89526C08437B1F42ED02DD0F82E2BD052
:107F50003CD0F601EF2C8F010F5F1F4F84911BD097
:107F6000EA94F801C1F70894C11CD11CFA94CF0C13
:107F7000D11C0EC0853739F428D08EE10CD085E9AC
:107F80000AD08FE07ACF813511F488E018D01DD067
:107F900080E101D065CF982F8091C00085FFFCCF94
:107FA0009093C60008958091C00087FFFCCF809118
:107FB000C00084FD01C0A8958091C6000895E0E648
:107FC000F0E098E1908380830895EDDF803219F02E
:107FD00088E0F5DFFFCF84E1DECF1F93182FE3DFCA
:107FE0001150E9F7F2DF1F91089580E0E8DFEE27F6
:047FF000FF270994CA
:027FFE00040479
:0400000300007E007B
:00000001FF